{
  "_format": "hh-sol-artifact-1",
  "contractName": "Forwarder",
  "sourceName": "contracts/ERC2771/Forwarder.sol",
  "abi": [
    {
      "inputs": [
        {
          "internalType": "string",
          "name": "name",
          "type": "string"
        }
      ],
      "stateMutability": "nonpayable",
      "type": "constructor"
    },
    {
      "inputs": [
        {
          "internalType": "address",
          "name": "account",
          "type": "address"
        }
      ],
      "name": "AddressInsufficientBalance",
      "type": "error"
    },
    {
      "inputs": [
        {
          "internalType": "uint48",
          "name": "deadline",
          "type": "uint48"
        }
      ],
      "name": "ERC2771ForwarderExpiredRequest",
      "type": "error"
    },
    {
      "inputs": [
        {
          "internalType": "address",
          "name": "signer",
          "type": "address"
        },
        {
          "internalType": "address",
          "name": "from",
          "type": "address"
        }
      ],
      "name": "ERC2771ForwarderInvalidSigner",
      "type": "error"
    },
    {
      "inputs": [
        {
          "internalType": "uint256",
          "name": "requestedValue",
          "type": "uint256"
        },
        {
          "internalType": "uint256",
          "name": "msgValue",
          "type": "uint256"
        }
      ],
      "name": "ERC2771ForwarderMismatchedValue",
      "type": "error"
    },
    {
      "inputs": [
        {
          "internalType": "address",
          "name": "target",
          "type": "address"
        },
        {
          "internalType": "address",
          "name": "forwarder",
          "type": "address"
        }
      ],
      "name": "ERC2771UntrustfulTarget",
      "type": "error"
    },
    {
      "inputs": [],
      "name": "FailedInnerCall",
      "type": "error"
    },
    {
      "inputs": [
        {
          "internalType": "address",
          "name": "account",
          "type": "address"
        },
        {
          "internalType": "uint256",
          "name": "currentNonce",
          "type": "uint256"
        }
      ],
      "name": "InvalidAccountNonce",
      "type": "error"
    },
    {
      "inputs": [],
      "name": "InvalidShortString",
      "type": "error"
    },
    {
      "inputs": [
        {
          "internalType": "string",
          "name": "str",
          "type": "string"
        }
      ],
      "name": "StringTooLong",
      "type": "error"
    },
    {
      "anonymous": false,
      "inputs": [],
      "name": "EIP712DomainChanged",
      "type": "event"
    },
    {
      "anonymous": false,
      "inputs": [
        {
          "indexed": true,
          "internalType": "address",
          "name": "signer",
          "type": "address"
        },
        {
          "indexed": false,
          "internalType": "uint256",
          "name": "nonce",
          "type": "uint256"
        },
        {
          "indexed": false,
          "internalType": "bool",
          "name": "success",
          "type": "bool"
        }
      ],
      "name": "ExecutedForwardRequest",
      "type": "event"
    },
    {
      "inputs": [],
      "name": "eip712Domain",
      "outputs": [
        {
          "internalType": "bytes1",
          "name": "fields",
          "type": "bytes1"
        },
        {
          "internalType": "string",
          "name": "name",
          "type": "string"
        },
        {
          "internalType": "string",
          "name": "version",
          "type": "string"
        },
        {
          "internalType": "uint256",
          "name": "chainId",
          "type": "uint256"
        },
        {
          "internalType": "address",
          "name": "verifyingContract",
          "type": "address"
        },
        {
          "internalType": "bytes32",
          "name": "salt",
          "type": "bytes32"
        },
        {
          "internalType": "uint256[]",
          "name": "extensions",
          "type": "uint256[]"
        }
      ],
      "stateMutability": "view",
      "type": "function"
    },
    {
      "inputs": [
        {
          "components": [
            {
              "internalType": "address",
              "name": "from",
              "type": "address"
            },
            {
              "internalType": "address",
              "name": "to",
              "type": "address"
            },
            {
              "internalType": "uint256",
              "name": "value",
              "type": "uint256"
            },
            {
              "internalType": "uint256",
              "name": "gas",
              "type": "uint256"
            },
            {
              "internalType": "uint48",
              "name": "deadline",
              "type": "uint48"
            },
            {
              "internalType": "bytes",
              "name": "data",
              "type": "bytes"
            },
            {
              "internalType": "bytes",
              "name": "signature",
              "type": "bytes"
            }
          ],
          "internalType": "struct ERC2771Forwarder.ForwardRequestData",
          "name": "request",
          "type": "tuple"
        }
      ],
      "name": "execute",
      "outputs": [],
      "stateMutability": "payable",
      "type": "function"
    },
    {
      "inputs": [
        {
          "components": [
            {
              "internalType": "address",
              "name": "from",
              "type": "address"
            },
            {
              "internalType": "address",
              "name": "to",
              "type": "address"
            },
            {
              "internalType": "uint256",
              "name": "value",
              "type": "uint256"
            },
            {
              "internalType": "uint256",
              "name": "gas",
              "type": "uint256"
            },
            {
              "internalType": "uint48",
              "name": "deadline",
              "type": "uint48"
            },
            {
              "internalType": "bytes",
              "name": "data",
              "type": "bytes"
            },
            {
              "internalType": "bytes",
              "name": "signature",
              "type": "bytes"
            }
          ],
          "internalType": "struct ERC2771Forwarder.ForwardRequestData[]",
          "name": "requests",
          "type": "tuple[]"
        },
        {
          "internalType": "address payable",
          "name": "refundReceiver",
          "type": "address"
        }
      ],
      "name": "executeBatch",
      "outputs": [],
      "stateMutability": "payable",
      "type": "function"
    },
    {
      "inputs": [
        {
          "internalType": "address",
          "name": "owner",
          "type": "address"
        }
      ],
      "name": "nonces",
      "outputs": [
        {
          "internalType": "uint256",
          "name": "",
          "type": "uint256"
        }
      ],
      "stateMutability": "view",
      "type": "function"
    },
    {
      "inputs": [
        {
          "components": [
            {
              "internalType": "address",
              "name": "from",
              "type": "address"
            },
            {
              "internalType": "address",
              "name": "to",
              "type": "address"
            },
            {
              "internalType": "uint256",
              "name": "value",
              "type": "uint256"
            },
            {
              "internalType": "uint256",
              "name": "gas",
              "type": "uint256"
            },
            {
              "internalType": "uint48",
              "name": "deadline",
              "type": "uint48"
            },
            {
              "internalType": "bytes",
              "name": "data",
              "type": "bytes"
            },
            {
              "internalType": "bytes",
              "name": "signature",
              "type": "bytes"
            }
          ],
          "internalType": "struct ERC2771Forwarder.ForwardRequestData",
          "name": "request",
          "type": "tuple"
        }
      ],
      "name": "verify",
      "outputs": [
        {
          "internalType": "bool",
          "name": "",
          "type": "bool"
        }
      ],
      "stateMutability": "view",
      "type": "function"
    }
  ],
  "bytecode": "0x6101606040523480156200001257600080fd5b50604051620023ae380380620023ae8339818101604052810190620000389190620003e7565b80806040518060400160405280600181526020017f3100000000000000000000000000000000000000000000000000000000000000815250620000866000836200012860201b90919060201c565b6101208181525050620000a46001826200012860201b90919060201c565b6101408181525050818051906020012060e08181525050808051906020012061010081815250504660a08181525050620000e36200018060201b60201c565b608081815250503073ffffffffffffffffffffffffffffffffffffffff1660c08173ffffffffffffffffffffffffffffffffffffffff16815250505050505062000950565b60006020835110156200014e576200014683620001dd60201b60201c565b90506200017a565b8262000160836200024a60201b60201c565b600001908162000171919062000683565b5060ff60001b90505b92915050565b60007f8b73c3c69bb8fe3d512ecc4cf759cc79239f7b179b0ffacaa9a75d522b39400f60e051610100514630604051602001620001c2959493929190620007db565b60405160208183030381529060405280519060200120905090565b600080829050601f815111156200022d57826040517f305a27a90000000000000000000000000000000000000000000000000000000081526004016200022491906200088a565b60405180910390fd5b8051816200023b90620008e0565b60001c1760001b915050919050565b6000819050919050565b6000604051905090565b600080fd5b600080fd5b600080fd5b600080fd5b6000601f19601f8301169050919050565b7f4e487b7100000000000000000000000000000000000000000000000000000000600052604160045260246000fd5b620002bd8262000272565b810181811067ffffffffffffffff82111715620002df57620002de62000283565b5b80604052505050565b6000620002f462000254565b9050620003028282620002b2565b919050565b600067ffffffffffffffff82111562000325576200032462000283565b5b620003308262000272565b9050602081019050919050565b60005b838110156200035d57808201518184015260208101905062000340565b60008484015250505050565b6000620003806200037a8462000307565b620002e8565b9050828152602081018484840111156200039f576200039e6200026d565b5b620003ac8482856200033d565b509392505050565b600082601f830112620003cc57620003cb62000268565b5b8151620003de84826020860162000369565b91505092915050565b6000602082840312156200040057620003ff6200025e565b5b600082015167ffffffffffffffff81111562000421576200042062000263565b5b6200042f84828501620003b4565b91505092915050565b600081519050919050565b7f4e487b7100000000000000000000000000000000000000000000000000000000600052602260045260246000fd5b600060028204905060018216806200048b57607f821691505b602082108103620004a157620004a062000443565b5b50919050565b60008190508160005260206000209050919050565b60006020601f8301049050919050565b600082821b905092915050565b6000600883026200050b7fffffffffffffffffffffffffffffffffffffffffffffffffffffffffffffffff82620004cc565b620005178683620004cc565b95508019841693508086168417925050509392505050565b6000819050919050565b6000819050919050565b6000620005646200055e62000558846200052f565b62000539565b6200052f565b9050919050565b6000819050919050565b620005808362000543565b620005986200058f826200056b565b848454620004d9565b825550505050565b600090565b620005af620005a0565b620005bc81848462000575565b505050565b5b81811015620005e457620005d8600082620005a5565b600181019050620005c2565b5050565b601f8211156200063357620005fd81620004a7565b6200060884620004bc565b8101602085101562000618578190505b620006306200062785620004bc565b830182620005c1565b50505b505050565b600082821c905092915050565b6000620006586000198460080262000638565b1980831691505092915050565b600062000673838362000645565b9150826002028217905092915050565b6200068e8262000438565b67ffffffffffffffff811115620006aa57620006a962000283565b5b620006b6825462000472565b620006c3828285620005e8565b600060209050601f831160018114620006fb5760008415620006e6578287015190505b620006f2858262000665565b86555062000762565b601f1984166200070b86620004a7565b60005b8281101562000735578489015182556001820191506020850194506020810190506200070e565b8683101562000755578489015162000751601f89168262000645565b8355505b6001600288020188555050505b505050505050565b6000819050919050565b6200077f816200076a565b82525050565b62000790816200052f565b82525050565b600073ffffffffffffffffffffffffffffffffffffffff82169050919050565b6000620007c38262000796565b9050919050565b620007d581620007b6565b82525050565b600060a082019050620007f2600083018862000774565b62000801602083018762000774565b62000810604083018662000774565b6200081f606083018562000785565b6200082e6080830184620007ca565b9695505050505050565b600082825260208201905092915050565b6000620008568262000438565b62000862818562000838565b9350620008748185602086016200033d565b6200087f8162000272565b840191505092915050565b60006020820190508181036000830152620008a6818462000849565b905092915050565b600081519050919050565b6000819050602082019050919050565b6000620008d782516200076a565b80915050919050565b6000620008ed82620008ae565b82620008f984620008b9565b90506200090681620008c9565b925060208210156200094957620009447fffffffffffffffffffffffffffffffffffffffffffffffffffffffffffffffff83602003600802620004cc565b831692505b5050919050565b60805160a05160c05160e051610100516101205161014051611a03620009ab600039600061052f015260006104f401526000610f2d01526000610f0c01526000610caf01526000610d0501526000610d2e0152611a036000f3fe60806040526004361061004a5760003560e01c806319d8d38c1461004f5780637ecebe001461008c57806384b0196e146100c9578063ccf96b4a146100fa578063df905caf14610116575b600080fd5b34801561005b57600080fd5b5061007660048036038101906100719190610fab565b610132565b604051610083919061100f565b60405180910390f35b34801561009857600080fd5b506100b360048036038101906100ae9190611088565b610165565b6040516100c091906110ce565b60405180910390f35b3480156100d557600080fd5b506100de6101ae565b6040516100f1979695949392919061129a565b60405180910390f35b610114600480360381019061010f91906113c1565b610258565b005b610130600480360381019061012b9190610fab565b6103ae565b005b60008060008061014185610440565b509250925092508280156101525750815b801561015b5750805b9350505050919050565b6000600260008373ffffffffffffffffffffffffffffffffffffffff1673ffffffffffffffffffffffffffffffffffffffff168152602001908152602001600020549050919050565b6000606080600080600060606101c26104eb565b6101ca610526565b46306000801b600067ffffffffffffffff8111156101eb576101ea611421565b5b6040519080825280602002602001820160405280156102195781602001602082028036833780820191505090505b507f0f00000000000000000000000000000000000000000000000000000000000000959493929190965096509650965096509650965090919293949596565b60008073ffffffffffffffffffffffffffffffffffffffff168273ffffffffffffffffffffffffffffffffffffffff1614905060008060005b8686905081101561034c578686828181106102af576102ae611450565b5b90506020028101906102c1919061148e565b60400135836102d091906114e5565b925060006103028888848181106102ea576102e9611450565b5b90506020028101906102fc919061148e565b86610561565b9050806103405787878381811061031c5761031b611450565b5b905060200281019061032e919061148e565b604001358361033d91906114e5565b92505b50806001019050610291565b503482146103935781346040517f70647f7900000000000000000000000000000000000000000000000000000000815260040161038a929190611519565b60405180910390fd5b600081146103a6576103a58482610796565b5b505050505050565b806040013534146103fc578060400135346040517f70647f790000000000000000000000000000000000000000000000000000000081526004016103f3929190611519565b60405180910390fd5b610407816001610561565b61043d576040517f1425ea4200000000000000000000000000000000000000000000000000000000815260040160405180910390fd5b50565b60008060008060008061045287610883565b9150915061047187602001602081019061046c9190611088565b610a00565b428860800160208101906104859190611580565b65ffffffffffff1610158380156104d957508860000160208101906104aa9190611088565b73ffffffffffffffffffffffffffffffffffffffff168373ffffffffffffffffffffffffffffffffffffffff16145b83955095509550955050509193509193565b606061052160007f0000000000000000000000000000000000000000000000000000000000000000610a9c90919063ffffffff16565b905090565b606061055c60017f0000000000000000000000000000000000000000000000000000000000000000610a9c90919063ffffffff16565b905090565b600080600080600061057287610440565b9350935093509350851561068157836105d6578660200160208101906105989190611088565b306040517fd2650cd10000000000000000000000000000000000000000000000000000000081526004016105cd9291906115ad565b60405180910390fd5b8261062a578660800160208101906105ee9190611580565b6040517f94eef58a00000000000000000000000000000000000000000000000000000000815260040161062191906115e5565b60405180910390fd5b8161068057808760000160208101906106439190611088565b6040517fc845a0560000000000000000000000000000000000000000000000000000000081526004016106779291906115ad565b60405180910390fd5b5b83801561068b5750815b80156106945750825b1561078c5760006106a482610b4c565b905060008860600135905060008960200160208101906106c49190611088565b905060008a60400135905060008b8060a001906106e19190611600565b8d60000160208101906106f49190611088565b604051602001610706939291906116ea565b6040516020818303038152906040529050600080600083516020850186888af19a505a9050610735818e610ba3565b8673ffffffffffffffffffffffffffffffffffffffff167f842fb24a83793558587a3dab2be7674da4a51d09c5542d6dd354e5d0ea70813c878d60405161077d929190611714565b60405180910390a25050505050505b5050505092915050565b804710156107db57306040517fcd7860590000000000000000000000000000000000000000000000000000000081526004016107d2919061173d565b60405180910390fd5b60008273ffffffffffffffffffffffffffffffffffffffff16826040516108019061177e565b60006040518083038185875af1925050503d806000811461083e576040519150601f19603f3d011682016040523d82523d6000602084013e610843565b606091505b505090508061087e576040517f1425ea4200000000000000000000000000000000000000000000000000000000815260040160405180910390fd5b505050565b6000806000806109c7858060c0019061089c9190611600565b8080601f016020809104026020016040519081016040528093929190818152602001838380828437600081840152601f19601f820116905080830192505050505050506109b97f7f96328b83274ebc7c1cf4f7a3abda602b51a78b7fa1d86a2ce353d75e587cac8860000160208101906109169190611088565b8960200160208101906109299190611088565b8a604001358b6060013561094e8d60000160208101906109499190611088565b610165565b8d60800160208101906109619190611580565b8e8060a001906109719190611600565b60405161097f929190611793565b604051809103902060405160200161099e9897969594939291906117ac565b60405160208183030381529060405280519060200120610bc1565b610bdb90919063ffffffff16565b5091509150600060038111156109e0576109df61182a565b5b8160038111156109f3576109f261182a565b5b1482935093505050915091565b60008030604051602401610a14919061173d565b60405160208183030381529060405263572b6c0560e01b6020820180517bffffffffffffffffffffffffffffffffffffffffffffffffffffffff83818316178352505050509050600080600060206000855160208701895afa92503d91506000519050828015610a85575060208210155b8015610a915750600081115b945050505050919050565b606060ff60001b8314610ab957610ab283610c37565b9050610b46565b818054610ac590611888565b80601f0160208091040260200160405190810160405280929190818152602001828054610af190611888565b8015610b3e5780601f10610b1357610100808354040283529160200191610b3e565b820191906000526020600020905b815481529060010190602001808311610b2157829003601f168201915b505050505090505b92915050565b6000600260008373ffffffffffffffffffffffffffffffffffffffff1673ffffffffffffffffffffffffffffffffffffffff1681526020019081526020016000206000815480929190600101919050559050919050565b603f8160600135610bb491906118e8565b821015610bbd57fe5b5050565b6000610bd4610bce610cab565b83610d62565b9050919050565b60008060006041845103610c205760008060006020870151925060408701519150606087015160001a9050610c1288828585610da3565b955095509550505050610c30565b60006002855160001b9250925092505b9250925092565b60606000610c4483610e97565b90506000602067ffffffffffffffff811115610c6357610c62611421565b5b6040519080825280601f01601f191660200182016040528015610c955781602001600182028036833780820191505090505b5090508181528360208201528092505050919050565b60007f000000000000000000000000000000000000000000000000000000000000000073ffffffffffffffffffffffffffffffffffffffff163073ffffffffffffffffffffffffffffffffffffffff16148015610d2757507f000000000000000000000000000000000000000000000000000000000000000046145b15610d54577f00000000000000000000000000000000000000000000000000000000000000009050610d5f565b610d5c610ee7565b90505b90565b60006040517f190100000000000000000000000000000000000000000000000000000000000081528360028201528260228201526042812091505092915050565b60008060007f7fffffffffffffffffffffffffffffff5d576e7357a4501ddfe92f46681b20a08460001c1115610de3576000600385925092509250610e8d565b600060018888888860405160008152602001604052604051610e089493929190611935565b6020604051602081039080840390855afa158015610e2a573d6000803e3d6000fd5b505050602060405103519050600073ffffffffffffffffffffffffffffffffffffffff168173ffffffffffffffffffffffffffffffffffffffff1603610e7e57600060016000801b93509350935050610e8d565b8060008060001b935093509350505b9450945094915050565b60008060ff8360001c169050601f811115610ede576040517fb3512b0c00000000000000000000000000000000000000000000000000000000815260040160405180910390fd5b80915050919050565b60007f8b73c3c69bb8fe3d512ecc4cf759cc79239f7b179b0ffacaa9a75d522b39400f7f00000000000000000000000000000000000000000000000000000000000000007f00000000000000000000000000000000000000000000000000000000000000004630604051602001610f6295949392919061197a565b60405160208183030381529060405280519060200120905090565b600080fd5b600080fd5b600080fd5b600060e08284031215610fa257610fa1610f87565b5b81905092915050565b600060208284031215610fc157610fc0610f7d565b5b600082013567ffffffffffffffff811115610fdf57610fde610f82565b5b610feb84828501610f8c565b91505092915050565b60008115159050919050565b61100981610ff4565b82525050565b60006020820190506110246000830184611000565b92915050565b600073ffffffffffffffffffffffffffffffffffffffff82169050919050565b60006110558261102a565b9050919050565b6110658161104a565b811461107057600080fd5b50565b6000813590506110828161105c565b92915050565b60006020828403121561109e5761109d610f7d565b5b60006110ac84828501611073565b91505092915050565b6000819050919050565b6110c8816110b5565b82525050565b60006020820190506110e360008301846110bf565b92915050565b60007fff0000000000000000000000000000000000000000000000000000000000000082169050919050565b61111e816110e9565b82525050565b600081519050919050565b600082825260208201905092915050565b60005b8381101561115e578082015181840152602081019050611143565b60008484015250505050565b6000601f19601f8301169050919050565b600061118682611124565b611190818561112f565b93506111a0818560208601611140565b6111a98161116a565b840191505092915050565b6111bd8161104a565b82525050565b6000819050919050565b6111d6816111c3565b82525050565b600081519050919050565b600082825260208201905092915050565b6000819050602082019050919050565b611211816110b5565b82525050565b60006112238383611208565b60208301905092915050565b6000602082019050919050565b6000611247826111dc565b61125181856111e7565b935061125c836111f8565b8060005b8381101561128d5781516112748882611217565b975061127f8361122f565b925050600181019050611260565b5085935050505092915050565b600060e0820190506112af600083018a611115565b81810360208301526112c1818961117b565b905081810360408301526112d5818861117b565b90506112e460608301876110bf565b6112f160808301866111b4565b6112fe60a08301856111cd565b81810360c0830152611310818461123c565b905098975050505050505050565b600080fd5b600080fd5b600080fd5b60008083601f8401126113435761134261131e565b5b8235905067ffffffffffffffff8111156113605761135f611323565b5b60208301915083602082028301111561137c5761137b611328565b5b9250929050565b600061138e8261102a565b9050919050565b61139e81611383565b81146113a957600080fd5b50565b6000813590506113bb81611395565b92915050565b6000806000604084860312156113da576113d9610f7d565b5b600084013567ffffffffffffffff8111156113f8576113f7610f82565b5b6114048682870161132d565b93509350506020611417868287016113ac565b9150509250925092565b7f4e487b7100000000000000000000000000000000000000000000000000000000600052604160045260246000fd5b7f4e487b7100000000000000000000000000000000000000000000000000000000600052603260045260246000fd5b600080fd5b600080fd5b600080fd5b60008235600160e0038336030381126114aa576114a961147f565b5b80830191505092915050565b7f4e487b7100000000000000000000000000000000000000000000000000000000600052601160045260246000fd5b60006114f0826110b5565b91506114fb836110b5565b9250828201905080821115611513576115126114b6565b5b92915050565b600060408201905061152e60008301856110bf565b61153b60208301846110bf565b9392505050565b600065ffffffffffff82169050919050565b61155d81611542565b811461156857600080fd5b50565b60008135905061157a81611554565b92915050565b60006020828403121561159657611595610f7d565b5b60006115a48482850161156b565b91505092915050565b60006040820190506115c260008301856111b4565b6115cf60208301846111b4565b9392505050565b6115df81611542565b82525050565b60006020820190506115fa60008301846115d6565b92915050565b6000808335600160200384360303811261161d5761161c61147f565b5b80840192508235915067ffffffffffffffff82111561163f5761163e611484565b5b60208301925060018202360383131561165b5761165a611489565b5b509250929050565b600081905092915050565b82818337600083830152505050565b60006116898385611663565b935061169683858461166e565b82840190509392505050565b60008160601b9050919050565b60006116ba826116a2565b9050919050565b60006116cc826116af565b9050919050565b6116e46116df8261104a565b6116c1565b82525050565b60006116f782858761167d565b915061170382846116d3565b601482019150819050949350505050565b600060408201905061172960008301856110bf565b6117366020830184611000565b9392505050565b600060208201905061175260008301846111b4565b92915050565b50565b6000611768600083611663565b915061177382611758565b600082019050919050565b60006117898261175b565b9150819050919050565b60006117a082848661167d565b91508190509392505050565b6000610100820190506117c2600083018b6111cd565b6117cf602083018a6111b4565b6117dc60408301896111b4565b6117e960608301886110bf565b6117f660808301876110bf565b61180360a08301866110bf565b61181060c08301856115d6565b61181d60e08301846111cd565b9998505050505050505050565b7f4e487b7100000000000000000000000000000000000000000000000000000000600052602160045260246000fd5b7f4e487b7100000000000000000000000000000000000000000000000000000000600052602260045260246000fd5b600060028204905060018216806118a057607f821691505b6020821081036118b3576118b2611859565b5b50919050565b7f4e487b7100000000000000000000000000000000000000000000000000000000600052601260045260246000fd5b60006118f3826110b5565b91506118fe836110b5565b92508261190e5761190d6118b9565b5b828204905092915050565b600060ff82169050919050565b61192f81611919565b82525050565b600060808201905061194a60008301876111cd565b6119576020830186611926565b61196460408301856111cd565b61197160608301846111cd565b95945050505050565b600060a08201905061198f60008301886111cd565b61199c60208301876111cd565b6119a960408301866111cd565b6119b660608301856110bf565b6119c360808301846111b4565b969550505050505056fea2646970667358221220a7bf6e9b639b3a71b5b94dbe69e24984663621bd88badf16d4926978391ba8e564736f6c63430008180033",
  "linkReferences": {},
  "deployedLinkReferences": {}
}