{
  "_format": "hh-sol-artifact-1",
  "contractName": "SimpleSignContract",
  "sourceName": "contracts/SSC/SimpleSignContract.sol",
  "abi": [
    {
      "inputs": [
        {
          "internalType": "address",
          "name": "ensAddress",
          "type": "address"
        },
        {
          "internalType": "address",
          "name": "resolverAddress",
          "type": "address"
        },
        {
          "internalType": "address",
          "name": "trustedForwarder",
          "type": "address"
        }
      ],
      "stateMutability": "nonpayable",
      "type": "constructor"
    },
    {
      "inputs": [
        {
          "internalType": "address",
          "name": "sender",
          "type": "address"
        },
        {
          "internalType": "uint256",
          "name": "tokenId",
          "type": "uint256"
        },
        {
          "internalType": "address",
          "name": "owner",
          "type": "address"
        }
      ],
      "name": "ERC721IncorrectOwner",
      "type": "error"
    },
    {
      "inputs": [
        {
          "internalType": "address",
          "name": "operator",
          "type": "address"
        },
        {
          "internalType": "uint256",
          "name": "tokenId",
          "type": "uint256"
        }
      ],
      "name": "ERC721InsufficientApproval",
      "type": "error"
    },
    {
      "inputs": [
        {
          "internalType": "address",
          "name": "approver",
          "type": "address"
        }
      ],
      "name": "ERC721InvalidApprover",
      "type": "error"
    },
    {
      "inputs": [
        {
          "internalType": "address",
          "name": "operator",
          "type": "address"
        }
      ],
      "name": "ERC721InvalidOperator",
      "type": "error"
    },
    {
      "inputs": [
        {
          "internalType": "address",
          "name": "owner",
          "type": "address"
        }
      ],
      "name": "ERC721InvalidOwner",
      "type": "error"
    },
    {
      "inputs": [
        {
          "internalType": "address",
          "name": "receiver",
          "type": "address"
        }
      ],
      "name": "ERC721InvalidReceiver",
      "type": "error"
    },
    {
      "inputs": [
        {
          "internalType": "address",
          "name": "sender",
          "type": "address"
        }
      ],
      "name": "ERC721InvalidSender",
      "type": "error"
    },
    {
      "inputs": [
        {
          "internalType": "uint256",
          "name": "tokenId",
          "type": "uint256"
        }
      ],
      "name": "ERC721NonexistentToken",
      "type": "error"
    },
    {
      "anonymous": false,
      "inputs": [
        {
          "indexed": true,
          "internalType": "address",
          "name": "owner",
          "type": "address"
        },
        {
          "indexed": true,
          "internalType": "address",
          "name": "approved",
          "type": "address"
        },
        {
          "indexed": true,
          "internalType": "uint256",
          "name": "tokenId",
          "type": "uint256"
        }
      ],
      "name": "Approval",
      "type": "event"
    },
    {
      "anonymous": false,
      "inputs": [
        {
          "indexed": true,
          "internalType": "address",
          "name": "owner",
          "type": "address"
        },
        {
          "indexed": true,
          "internalType": "address",
          "name": "operator",
          "type": "address"
        },
        {
          "indexed": false,
          "internalType": "bool",
          "name": "approved",
          "type": "bool"
        }
      ],
      "name": "ApprovalForAll",
      "type": "event"
    },
    {
      "anonymous": false,
      "inputs": [
        {
          "indexed": true,
          "internalType": "address",
          "name": "from",
          "type": "address"
        },
        {
          "indexed": true,
          "internalType": "address",
          "name": "to",
          "type": "address"
        },
        {
          "indexed": true,
          "internalType": "uint256",
          "name": "tokenId",
          "type": "uint256"
        }
      ],
      "name": "Transfer",
      "type": "event"
    },
    {
      "inputs": [
        {
          "internalType": "address",
          "name": "to",
          "type": "address"
        },
        {
          "internalType": "uint256",
          "name": "tokenId",
          "type": "uint256"
        }
      ],
      "name": "approve",
      "outputs": [],
      "stateMutability": "nonpayable",
      "type": "function"
    },
    {
      "inputs": [
        {
          "internalType": "address",
          "name": "owner",
          "type": "address"
        }
      ],
      "name": "balanceOf",
      "outputs": [
        {
          "internalType": "uint256",
          "name": "",
          "type": "uint256"
        }
      ],
      "stateMutability": "view",
      "type": "function"
    },
    {
      "inputs": [],
      "name": "currentOwner",
      "outputs": [
        {
          "internalType": "address",
          "name": "",
          "type": "address"
        }
      ],
      "stateMutability": "view",
      "type": "function"
    },
    {
      "inputs": [],
      "name": "ens",
      "outputs": [
        {
          "internalType": "contract ENS",
          "name": "",
          "type": "address"
        }
      ],
      "stateMutability": "view",
      "type": "function"
    },
    {
      "inputs": [],
      "name": "gasFund",
      "outputs": [
        {
          "internalType": "uint256",
          "name": "",
          "type": "uint256"
        }
      ],
      "stateMutability": "view",
      "type": "function"
    },
    {
      "inputs": [
        {
          "internalType": "uint256",
          "name": "tokenId",
          "type": "uint256"
        }
      ],
      "name": "getApproved",
      "outputs": [
        {
          "internalType": "address",
          "name": "",
          "type": "address"
        }
      ],
      "stateMutability": "view",
      "type": "function"
    },
    {
      "inputs": [],
      "name": "getAuthorizedContracts",
      "outputs": [
        {
          "internalType": "uint256[]",
          "name": "",
          "type": "uint256[]"
        }
      ],
      "stateMutability": "view",
      "type": "function"
    },
    {
      "inputs": [
        {
          "internalType": "uint256",
          "name": "tokenId",
          "type": "uint256"
        }
      ],
      "name": "getContractData",
      "outputs": [
        {
          "internalType": "address",
          "name": "issuer",
          "type": "address"
        },
        {
          "internalType": "string",
          "name": "encryptedData",
          "type": "string"
        },
        {
          "internalType": "uint256",
          "name": "expirationTime",
          "type": "uint256"
        },
        {
          "internalType": "address[]",
          "name": "authorizedAddresses",
          "type": "address[]"
        }
      ],
      "stateMutability": "view",
      "type": "function"
    },
    {
      "inputs": [],
      "name": "getIssuerContracts",
      "outputs": [
        {
          "internalType": "uint256[]",
          "name": "",
          "type": "uint256[]"
        }
      ],
      "stateMutability": "view",
      "type": "function"
    },
    {
      "inputs": [],
      "name": "getRootNode",
      "outputs": [
        {
          "internalType": "bytes32",
          "name": "",
          "type": "bytes32"
        }
      ],
      "stateMutability": "view",
      "type": "function"
    },
    {
      "inputs": [
        {
          "internalType": "address",
          "name": "owner",
          "type": "address"
        },
        {
          "internalType": "address",
          "name": "operator",
          "type": "address"
        }
      ],
      "name": "isApprovedForAll",
      "outputs": [
        {
          "internalType": "bool",
          "name": "",
          "type": "bool"
        }
      ],
      "stateMutability": "view",
      "type": "function"
    },
    {
      "inputs": [
        {
          "internalType": "uint256",
          "name": "tokenId",
          "type": "uint256"
        },
        {
          "internalType": "address",
          "name": "addr",
          "type": "address"
        }
      ],
      "name": "isAuthorized",
      "outputs": [
        {
          "internalType": "bool",
          "name": "",
          "type": "bool"
        }
      ],
      "stateMutability": "view",
      "type": "function"
    },
    {
      "inputs": [
        {
          "internalType": "uint256",
          "name": "tokenId",
          "type": "uint256"
        },
        {
          "internalType": "address",
          "name": "addr",
          "type": "address"
        }
      ],
      "name": "isSignd",
      "outputs": [
        {
          "internalType": "bool",
          "name": "",
          "type": "bool"
        }
      ],
      "stateMutability": "view",
      "type": "function"
    },
    {
      "inputs": [
        {
          "internalType": "address",
          "name": "forwarder",
          "type": "address"
        }
      ],
      "name": "isTrustedForwarder",
      "outputs": [
        {
          "internalType": "bool",
          "name": "",
          "type": "bool"
        }
      ],
      "stateMutability": "view",
      "type": "function"
    },
    {
      "inputs": [
        {
          "internalType": "address",
          "name": "issuer",
          "type": "address"
        },
        {
          "internalType": "address[]",
          "name": "authorizedAddresses",
          "type": "address[]"
        },
        {
          "internalType": "string",
          "name": "encryptedData",
          "type": "string"
        },
        {
          "internalType": "uint256",
          "name": "expirationTime",
          "type": "uint256"
        }
      ],
      "name": "mint",
      "outputs": [
        {
          "internalType": "uint256",
          "name": "",
          "type": "uint256"
        }
      ],
      "stateMutability": "nonpayable",
      "type": "function"
    },
    {
      "inputs": [],
      "name": "name",
      "outputs": [
        {
          "internalType": "string",
          "name": "",
          "type": "string"
        }
      ],
      "stateMutability": "view",
      "type": "function"
    },
    {
      "inputs": [],
      "name": "originalOwner",
      "outputs": [
        {
          "internalType": "address",
          "name": "",
          "type": "address"
        }
      ],
      "stateMutability": "view",
      "type": "function"
    },
    {
      "inputs": [
        {
          "internalType": "uint256",
          "name": "tokenId",
          "type": "uint256"
        }
      ],
      "name": "ownerOf",
      "outputs": [
        {
          "internalType": "address",
          "name": "",
          "type": "address"
        }
      ],
      "stateMutability": "view",
      "type": "function"
    },
    {
      "inputs": [
        {
          "internalType": "string",
          "name": "subdomain",
          "type": "string"
        },
        {
          "internalType": "uint256",
          "name": "tokenId",
          "type": "uint256"
        }
      ],
      "name": "registerSubdomain",
      "outputs": [],
      "stateMutability": "nonpayable",
      "type": "function"
    },
    {
      "inputs": [],
      "name": "resolver",
      "outputs": [
        {
          "internalType": "contract PublicResolver",
          "name": "",
          "type": "address"
        }
      ],
      "stateMutability": "view",
      "type": "function"
    },
    {
      "inputs": [],
      "name": "rootNode",
      "outputs": [
        {
          "internalType": "bytes32",
          "name": "",
          "type": "bytes32"
        }
      ],
      "stateMutability": "view",
      "type": "function"
    },
    {
      "inputs": [
        {
          "internalType": "address",
          "name": "from",
          "type": "address"
        },
        {
          "internalType": "address",
          "name": "to",
          "type": "address"
        },
        {
          "internalType": "uint256",
          "name": "tokenId",
          "type": "uint256"
        }
      ],
      "name": "safeTransferFrom",
      "outputs": [],
      "stateMutability": "nonpayable",
      "type": "function"
    },
    {
      "inputs": [
        {
          "internalType": "address",
          "name": "from",
          "type": "address"
        },
        {
          "internalType": "address",
          "name": "to",
          "type": "address"
        },
        {
          "internalType": "uint256",
          "name": "tokenId",
          "type": "uint256"
        },
        {
          "internalType": "bytes",
          "name": "data",
          "type": "bytes"
        }
      ],
      "name": "safeTransferFrom",
      "outputs": [],
      "stateMutability": "nonpayable",
      "type": "function"
    },
    {
      "inputs": [
        {
          "internalType": "address",
          "name": "operator",
          "type": "address"
        },
        {
          "internalType": "bool",
          "name": "approved",
          "type": "bool"
        }
      ],
      "name": "setApprovalForAll",
      "outputs": [],
      "stateMutability": "nonpayable",
      "type": "function"
    },
    {
      "inputs": [
        {
          "internalType": "string",
          "name": "domain",
          "type": "string"
        }
      ],
      "name": "setRootNode",
      "outputs": [],
      "stateMutability": "nonpayable",
      "type": "function"
    },
    {
      "inputs": [
        {
          "internalType": "uint256",
          "name": "tokenId",
          "type": "uint256"
        }
      ],
      "name": "sign2Contract",
      "outputs": [],
      "stateMutability": "nonpayable",
      "type": "function"
    },
    {
      "inputs": [],
      "name": "subNode",
      "outputs": [
        {
          "internalType": "bytes32",
          "name": "",
          "type": "bytes32"
        }
      ],
      "stateMutability": "view",
      "type": "function"
    },
    {
      "inputs": [
        {
          "internalType": "bytes4",
          "name": "interfaceId",
          "type": "bytes4"
        }
      ],
      "name": "supportsInterface",
      "outputs": [
        {
          "internalType": "bool",
          "name": "",
          "type": "bool"
        }
      ],
      "stateMutability": "view",
      "type": "function"
    },
    {
      "inputs": [],
      "name": "symbol",
      "outputs": [
        {
          "internalType": "string",
          "name": "",
          "type": "string"
        }
      ],
      "stateMutability": "view",
      "type": "function"
    },
    {
      "inputs": [
        {
          "internalType": "uint256",
          "name": "tokenId",
          "type": "uint256"
        }
      ],
      "name": "tokenURI",
      "outputs": [
        {
          "internalType": "string",
          "name": "",
          "type": "string"
        }
      ],
      "stateMutability": "view",
      "type": "function"
    },
    {
      "inputs": [
        {
          "internalType": "address",
          "name": "from",
          "type": "address"
        },
        {
          "internalType": "address",
          "name": "to",
          "type": "address"
        },
        {
          "internalType": "uint256",
          "name": "tokenId",
          "type": "uint256"
        }
      ],
      "name": "transferFrom",
      "outputs": [],
      "stateMutability": "nonpayable",
      "type": "function"
    },
    {
      "inputs": [],
      "name": "trustedForwarder",
      "outputs": [
        {
          "internalType": "address",
          "name": "",
          "type": "address"
        }
      ],
      "stateMutability": "view",
      "type": "function"
    }
  ],
  "bytecode": "0x60a06040526000600d553480156200001657600080fd5b50604051620047193803806200471983398181016040528101906200003c919062000285565b806040518060400160405280600881526020017f5353435f4e414d450000000000000000000000000000000000000000000000008152506040518060400160405280600a81526020017f5353435f53594d424f4c000000000000000000000000000000000000000000008152508160009081620000ba91906200055b565b508060019081620000cc91906200055b565b5050508073ffffffffffffffffffffffffffffffffffffffff1660808173ffffffffffffffffffffffffffffffffffffffff16815250505082600660006101000a81548173ffffffffffffffffffffffffffffffffffffffff021916908373ffffffffffffffffffffffffffffffffffffffff16021790555081600760006101000a81548173ffffffffffffffffffffffffffffffffffffffff021916908373ffffffffffffffffffffffffffffffffffffffff1602179055506000801b60088190555033600c60006101000a81548173ffffffffffffffffffffffffffffffffffffffff021916908373ffffffffffffffffffffffffffffffffffffffff16021790555033600b60006101000a81548173ffffffffffffffffffffffffffffffffffffffff021916908373ffffffffffffffffffffffffffffffffffffffff16021790555050505062000642565b600080fd5b600073ffffffffffffffffffffffffffffffffffffffff82169050919050565b60006200024d8262000220565b9050919050565b6200025f8162000240565b81146200026b57600080fd5b50565b6000815190506200027f8162000254565b92915050565b600080600060608486031215620002a157620002a06200021b565b5b6000620002b1868287016200026e565b9350506020620002c4868287016200026e565b9250506040620002d7868287016200026e565b9150509250925092565b600081519050919050565b7f4e487b7100000000000000000000000000000000000000000000000000000000600052604160045260246000fd5b7f4e487b7100000000000000000000000000000000000000000000000000000000600052602260045260246000fd5b600060028204905060018216806200036357607f821691505b6020821081036200037957620003786200031b565b5b50919050565b60008190508160005260206000209050919050565b60006020601f8301049050919050565b600082821b905092915050565b600060088302620003e37fffffffffffffffffffffffffffffffffffffffffffffffffffffffffffffffff82620003a4565b620003ef8683620003a4565b95508019841693508086168417925050509392505050565b6000819050919050565b6000819050919050565b60006200043c62000436620004308462000407565b62000411565b62000407565b9050919050565b6000819050919050565b62000458836200041b565b62000470620004678262000443565b848454620003b1565b825550505050565b600090565b6200048762000478565b620004948184846200044d565b505050565b5b81811015620004bc57620004b06000826200047d565b6001810190506200049a565b5050565b601f8211156200050b57620004d5816200037f565b620004e08462000394565b81016020851015620004f0578190505b62000508620004ff8562000394565b83018262000499565b50505b505050565b600082821c905092915050565b6000620005306000198460080262000510565b1980831691505092915050565b60006200054b83836200051d565b9150826002028217905092915050565b6200056682620002e1565b67ffffffffffffffff811115620005825762000581620002ec565b5b6200058e82546200034a565b6200059b828285620004c0565b600060209050601f831160018114620005d35760008415620005be578287015190505b620005ca85826200053d565b8655506200063a565b601f198416620005e3866200037f565b60005b828110156200060d57848901518255600182019150602085019450602081019050620005e6565b868310156200062d578489015162000629601f8916826200051d565b8355505b6001600288020188555050505b505050505050565b6080516140bb6200065e6000396000610fea01526140bb6000f3fe608060405234801561001057600080fd5b50600436106101f05760003560e01c806370a082311161010f578063c714999e116100a2578063e985e9c511610071578063e985e9c5146105cf578063ef1f3757146105ff578063f1fffdcb14610632578063faff50a814610650576101f0565b8063c714999e14610545578063c75984fb14610563578063c87b56dd14610581578063cf2807d9146105b1576101f0565b806395d89b41116100de57806395d89b41146104d1578063a22cb465146104ef578063b387ef921461050b578063b88d4fde14610529576101f0565b806370a082311461044b5780637da0a8771461047b57806383ae9467146104995780638f449b85146104b5576101f0565b80633cbb683311610187578063572b6c0511610156578063572b6c051461039d578063609c6d7f146103cd5780636352211e146103fd57806365171b121461042d576101f0565b80633cbb6833146103175780633f15457f1461033357806342842e0e146103515780634c05c8f81461036d576101f0565b8063095ea7b3116101c3578063095ea7b31461029157806323b872dd146102ad57806336e98b68146102c957806338d1fcc3146102f9576101f0565b806301ffc9a7146101f557806304f3bcec1461022557806306fdde0314610243578063081812fc14610261575b600080fd5b61020f600480360381019061020a91906129d2565b61066e565b60405161021c9190612a1a565b60405180910390f35b61022d610750565b60405161023a9190612ab4565b60405180910390f35b61024b610776565b6040516102589190612b5f565b60405180910390f35b61027b60048036038101906102769190612bb7565b610808565b6040516102889190612c05565b60405180910390f35b6102ab60048036038101906102a69190612c4c565b610824565b005b6102c760048036038101906102c29190612c8c565b61083a565b005b6102e360048036038101906102de9190612edc565b61093c565b6040516102f09190612f8a565b60405180910390f35b610301610b58565b60405161030e9190612fbe565b60405180910390f35b610331600480360381019061032c9190612bb7565b610b62565b005b61033b610d6f565b6040516103489190612ffa565b60405180910390f35b61036b60048036038101906103669190612c8c565b610d95565b005b61038760048036038101906103829190613015565b610db5565b6040516103949190612a1a565b60405180910390f35b6103b760048036038101906103b29190613055565b610e65565b6040516103c49190612a1a565b60405180910390f35b6103e760048036038101906103e29190613015565b610ea4565b6040516103f49190612a1a565b60405180910390f35b61041760048036038101906104129190612bb7565b610f14565b6040516104249190612c05565b60405180910390f35b610435610f26565b6040516104429190612fbe565b60405180910390f35b61046560048036038101906104609190613055565b610f2c565b6040516104729190612f8a565b60405180910390f35b610483610fe6565b6040516104909190612c05565b60405180910390f35b6104b360048036038101906104ae9190613082565b61100e565b005b6104cf60048036038101906104ca91906130cb565b611067565b005b6104d96112f5565b6040516104e69190612b5f565b60405180910390f35b61050960048036038101906105049190613153565b611387565b005b61051361139d565b6040516105209190612c05565b60405180910390f35b610543600480360381019061053e9190613234565b6113c3565b005b61054d6113e0565b60405161055a9190612f8a565b60405180910390f35b61056b6113e6565b6040516105789190613375565b60405180910390f35b61059b60048036038101906105969190612bb7565b61147b565b6040516105a89190612b5f565b60405180910390f35b6105b96114e4565b6040516105c69190613375565b60405180910390f35b6105e960048036038101906105e49190613397565b611579565b6040516105f69190612a1a565b60405180910390f35b61061960048036038101906106149190612bb7565b61160d565b6040516106299493929190613495565b60405180910390f35b61063a611a5f565b6040516106479190612c05565b60405180910390f35b610658611a85565b6040516106659190612fbe565b60405180910390f35b60007f80ac58cd000000000000000000000000000000000000000000000000000000007bffffffffffffffffffffffffffffffffffffffffffffffffffffffff1916827bffffffffffffffffffffffffffffffffffffffffffffffffffffffff1916148061073957507f5b5e139f000000000000000000000000000000000000000000000000000000007bffffffffffffffffffffffffffffffffffffffffffffffffffffffff1916827bffffffffffffffffffffffffffffffffffffffffffffffffffffffff1916145b80610749575061074882611a8b565b5b9050919050565b600760009054906101000a900473ffffffffffffffffffffffffffffffffffffffff1681565b60606000805461078590613517565b80601f01602080910402602001604051908101604052809291908181526020018280546107b190613517565b80156107fe5780601f106107d3576101008083540402835291602001916107fe565b820191906000526020600020905b8154815290600101906020018083116107e157829003601f168201915b5050505050905090565b600061081382611af5565b5061081d82611b7d565b9050919050565b6108368282610831611bba565b611bc9565b5050565b600073ffffffffffffffffffffffffffffffffffffffff168273ffffffffffffffffffffffffffffffffffffffff16036108ac5760006040517f64a0ae920000000000000000000000000000000000000000000000000000000081526004016108a39190612c05565b60405180910390fd5b60006108c083836108bb611bba565b611bdb565b90508373ffffffffffffffffffffffffffffffffffffffff168173ffffffffffffffffffffffffffffffffffffffff1614610936578382826040517f64283d7b00000000000000000000000000000000000000000000000000000000815260040161092d93929190613548565b60405180910390fd5b50505050565b600080600d6000815480929190610952906135ae565b9190505590506109623082611df5565b6000600e60008381526020019081526020016000209050868160000160006101000a81548173ffffffffffffffffffffffffffffffffffffffff021916908373ffffffffffffffffffffffffffffffffffffffff160217905550848160020190816109cd9190613798565b50838160030181905550600f60008873ffffffffffffffffffffffffffffffffffffffff1673ffffffffffffffffffffffffffffffffffffffff16815260200190815260200160002082908060018154018082558091505060019003906000526020600020016000909190919091505560005b8651811015610b4a576001826001016000898481518110610a6457610a6361386a565b5b602002602001015173ffffffffffffffffffffffffffffffffffffffff1673ffffffffffffffffffffffffffffffffffffffff16815260200190815260200160002060006101000a81548160ff02191690831515021790555060106000888381518110610ad457610ad361386a565b5b602002602001015173ffffffffffffffffffffffffffffffffffffffff1673ffffffffffffffffffffffffffffffffffffffff1681526020019081526020016000208390806001815401808255809150506001900390600052602060002001600090919091909150558080600101915050610a40565b508192505050949350505050565b6000600854905090565b610b6b81611eee565b610baa576040517f08c379a0000000000000000000000000000000000000000000000000000000008152600401610ba1906138e5565b60405180910390fd5b6000600e60008381526020019081526020016000209050806001016000610bcf611bba565b73ffffffffffffffffffffffffffffffffffffffff1673ffffffffffffffffffffffffffffffffffffffff16815260200190815260200160002060009054906101000a900460ff16610c56576040517f08c379a0000000000000000000000000000000000000000000000000000000008152600401610c4d90613951565b60405180910390fd5b601160008381526020019081526020016000206000610c73611bba565b73ffffffffffffffffffffffffffffffffffffffff1673ffffffffffffffffffffffffffffffffffffffff16815260200190815260200160002060009054906101000a900460ff1615610cfb576040517f08c379a0000000000000000000000000000000000000000000000000000000008152600401610cf2906139bd565b60405180910390fd5b6001601160008481526020019081526020016000206000610d1a611bba565b73ffffffffffffffffffffffffffffffffffffffff1673ffffffffffffffffffffffffffffffffffffffff16815260200190815260200160002060006101000a81548160ff0219169083151502179055505050565b600660009054906101000a900473ffffffffffffffffffffffffffffffffffffffff1681565b610db0838383604051806020016040528060008152506113c3565b505050565b6000610dc083611eee565b610dff576040517f08c379a0000000000000000000000000000000000000000000000000000000008152600401610df6906138e5565b60405180910390fd5b6011600084815260200190815260200160002060008373ffffffffffffffffffffffffffffffffffffffff1673ffffffffffffffffffffffffffffffffffffffff16815260200190815260200160002060009054906101000a900460ff16905092915050565b6000610e6f610fe6565b73ffffffffffffffffffffffffffffffffffffffff168273ffffffffffffffffffffffffffffffffffffffff16149050919050565b600080600e600085815260200190815260200160002090508060010160008473ffffffffffffffffffffffffffffffffffffffff1673ffffffffffffffffffffffffffffffffffffffff16815260200190815260200160002060009054906101000a900460ff1691505092915050565b6000610f1f82611af5565b9050919050565b60095481565b60008073ffffffffffffffffffffffffffffffffffffffff168273ffffffffffffffffffffffffffffffffffffffff1603610f9f5760006040517f89c62b64000000000000000000000000000000000000000000000000000000008152600401610f969190612c05565b60405180910390fd5b600360008373ffffffffffffffffffffffffffffffffffffffff1673ffffffffffffffffffffffffffffffffffffffff168152602001908152602001600020549050919050565b60007f0000000000000000000000000000000000000000000000000000000000000000905090565b7f4f5b812789fc606be1b3b16908db13fc7a9adf7ca72641f84d75b47069d3d7f081805190602001206040516020016110489291906139fe565b6040516020818303038152906040528051906020012060088190555050565b60008251116110ab576040517f08c379a00000000000000000000000000000000000000000000000000000000081526004016110a290613a76565b60405180910390fd5b6000826040516020016110be9190613ad2565b6040516020818303038152906040528051906020012090506110e08130611efc565b6000600854826040516020016110f79291906139fe565b604051602081830303815290604052805190602001209050600660009054906101000a900473ffffffffffffffffffffffffffffffffffffffff1673ffffffffffffffffffffffffffffffffffffffff16635ef2c7f06008548430600760009054906101000a900473ffffffffffffffffffffffffffffffffffffffff1660006040518663ffffffff1660e01b8152600401611197959493929190613b38565b600060405180830381600087803b1580156111b157600080fd5b505af11580156111c5573d6000803e3d6000fd5b50505050600760009054906101000a900473ffffffffffffffffffffffffffffffffffffffff1673ffffffffffffffffffffffffffffffffffffffff1663d5fa2b0082306040518363ffffffff1660e01b8152600401611226929190613b8b565b600060405180830381600087803b15801561124057600080fd5b505af1158015611254573d6000803e3d6000fd5b50505050600760009054906101000a900473ffffffffffffffffffffffffffffffffffffffff1673ffffffffffffffffffffffffffffffffffffffff166310f13a8c826112a086611fec565b6040518363ffffffff1660e01b81526004016112bd929190613c00565b600060405180830381600087803b1580156112d757600080fd5b505af11580156112eb573d6000803e3d6000fd5b5050505050505050565b60606001805461130490613517565b80601f016020809104026020016040519081016040528092919081815260200182805461133090613517565b801561137d5780601f106113525761010080835404028352916020019161137d565b820191906000526020600020905b81548152906001019060200180831161136057829003601f168201915b5050505050905090565b611399611392611bba565b83836120ba565b5050565b600b60009054906101000a900473ffffffffffffffffffffffffffffffffffffffff1681565b6113ce84848461083a565b6113da84848484612229565b50505050565b600a5481565b6060600f60003373ffffffffffffffffffffffffffffffffffffffff1673ffffffffffffffffffffffffffffffffffffffff16815260200190815260200160002080548060200260200160405190810160405280929190818152602001828054801561147157602002820191906000526020600020905b81548152602001906001019080831161145d575b5050505050905090565b606061148682611af5565b5060006114916123e0565b905060008151116114b157604051806020016040528060008152506114dc565b806114bb84611fec565b6040516020016114cc929190613c43565b6040516020818303038152906040525b915050919050565b6060601060003373ffffffffffffffffffffffffffffffffffffffff1673ffffffffffffffffffffffffffffffffffffffff16815260200190815260200160002080548060200260200160405190810160405280929190818152602001828054801561156f57602002820191906000526020600020905b81548152602001906001019080831161155b575b5050505050905090565b6000600560008473ffffffffffffffffffffffffffffffffffffffff1673ffffffffffffffffffffffffffffffffffffffff16815260200190815260200160002060008373ffffffffffffffffffffffffffffffffffffffff1673ffffffffffffffffffffffffffffffffffffffff16815260200190815260200160002060009054906101000a900460ff16905092915050565b600060606000606061161e85611eee565b61165d576040517f08c379a000000000000000000000000000000000000000000000000000000000815260040161165490613cb3565b60405180910390fd5b6000600e600087815260200190815260200160002090508060000160009054906101000a900473ffffffffffffffffffffffffffffffffffffffff1673ffffffffffffffffffffffffffffffffffffffff163373ffffffffffffffffffffffffffffffffffffffff16148061171d57508060010160003373ffffffffffffffffffffffffffffffffffffffff1673ffffffffffffffffffffffffffffffffffffffff16815260200190815260200160002060009054906101000a900460ff165b61175c576040517f08c379a000000000000000000000000000000000000000000000000000000000815260040161175390613d1f565b60405180910390fd5b6000805b601060003373ffffffffffffffffffffffffffffffffffffffff1673ffffffffffffffffffffffffffffffffffffffff168152602001908152602001600020805490508110156118285787601060003373ffffffffffffffffffffffffffffffffffffffff1673ffffffffffffffffffffffffffffffffffffffff16815260200190815260200160002082815481106117fc576117fb61386a565b5b90600052602060002001540361181b578180611817906135ae565b9250505b8080600101915050611760565b5060008167ffffffffffffffff81111561184557611844612ce4565b5b6040519080825280602002602001820160405280156118735781602001602082028036833780820191505090505b5090506000805b601060003373ffffffffffffffffffffffffffffffffffffffff1673ffffffffffffffffffffffffffffffffffffffff168152602001908152602001600020805490508110156119905789601060003373ffffffffffffffffffffffffffffffffffffffff1673ffffffffffffffffffffffffffffffffffffffff16815260200190815260200160002082815481106119165761191561386a565b5b906000526020600020015403611983573383838151811061193a5761193961386a565b5b602002602001019073ffffffffffffffffffffffffffffffffffffffff16908173ffffffffffffffffffffffffffffffffffffffff1681525050818061197f906135ae565b9250505b808060010191505061187a565b508360000160009054906101000a900473ffffffffffffffffffffffffffffffffffffffff16846002018560030154848280546119cc90613517565b80601f01602080910402602001604051908101604052809291908181526020018280546119f890613517565b8015611a455780601f10611a1a57610100808354040283529160200191611a45565b820191906000526020600020905b815481529060010190602001808311611a2857829003601f168201915b505050505092509750975097509750505050509193509193565b600c60009054906101000a900473ffffffffffffffffffffffffffffffffffffffff1681565b60085481565b60007f01ffc9a7000000000000000000000000000000000000000000000000000000007bffffffffffffffffffffffffffffffffffffffffffffffffffffffff1916827bffffffffffffffffffffffffffffffffffffffffffffffffffffffff1916149050919050565b600080611b01836123f7565b9050600073ffffffffffffffffffffffffffffffffffffffff168173ffffffffffffffffffffffffffffffffffffffff1603611b7457826040517f7e273289000000000000000000000000000000000000000000000000000000008152600401611b6b9190612f8a565b60405180910390fd5b80915050919050565b60006004600083815260200190815260200160002060009054906101000a900473ffffffffffffffffffffffffffffffffffffffff169050919050565b6000611bc4612434565b905090565b611bd683838360016124a9565b505050565b600080611be7846123f7565b9050600073ffffffffffffffffffffffffffffffffffffffff168373ffffffffffffffffffffffffffffffffffffffff1614611c2957611c2881848661266e565b5b600073ffffffffffffffffffffffffffffffffffffffff168173ffffffffffffffffffffffffffffffffffffffff1614611cba57611c6b6000856000806124a9565b6001600360008373ffffffffffffffffffffffffffffffffffffffff1673ffffffffffffffffffffffffffffffffffffffff168152602001908152602001600020600082825403925050819055505b600073ffffffffffffffffffffffffffffffffffffffff168573ffffffffffffffffffffffffffffffffffffffff1614611d3d576001600360008773ffffffffffffffffffffffffffffffffffffffff1673ffffffffffffffffffffffffffffffffffffffff168152602001908152602001600020600082825401925050819055505b846002600086815260200190815260200160002060006101000a81548173ffffffffffffffffffffffffffffffffffffffff021916908373ffffffffffffffffffffffffffffffffffffffff160217905550838573ffffffffffffffffffffffffffffffffffffffff168273ffffffffffffffffffffffffffffffffffffffff167fddf252ad1be2c89b69c2b068fc378daa952ba7f163c4a11628f55a4df523b3ef60405160405180910390a4809150509392505050565b600073ffffffffffffffffffffffffffffffffffffffff168273ffffffffffffffffffffffffffffffffffffffff1603611e675760006040517f64a0ae92000000000000000000000000000000000000000000000000000000008152600401611e5e9190612c05565b60405180910390fd5b6000611e7583836000611bdb565b9050600073ffffffffffffffffffffffffffffffffffffffff168173ffffffffffffffffffffffffffffffffffffffff1614611ee95760006040517f73c6ac6e000000000000000000000000000000000000000000000000000000008152600401611ee09190612c05565b60405180910390fd5b505050565b600081600d54119050919050565b6000801b60085403611f43576040517f08c379a0000000000000000000000000000000000000000000000000000000008152600401611f3a90613d8b565b60405180910390fd5b600660009054906101000a900473ffffffffffffffffffffffffffffffffffffffff1673ffffffffffffffffffffffffffffffffffffffff166306ab592360085484846040518463ffffffff1660e01b8152600401611fa493929190613dab565b6020604051808303816000875af1158015611fc3573d6000803e3d6000fd5b505050506040513d601f19601f82011682018060405250810190611fe79190613e0e565b505050565b606060006001611ffb84612732565b01905060008167ffffffffffffffff81111561201a57612019612ce4565b5b6040519080825280601f01601f19166020018201604052801561204c5781602001600182028036833780820191505090505b509050600082602001820190505b6001156120af578080600190039150507f3031323334353637383961626364656600000000000000000000000000000000600a86061a8153600a85816120a3576120a2613e3b565b5b0494506000850361205a575b819350505050919050565b600073ffffffffffffffffffffffffffffffffffffffff168273ffffffffffffffffffffffffffffffffffffffff160361212b57816040517f5b08ba180000000000000000000000000000000000000000000000000000000081526004016121229190612c05565b60405180910390fd5b80600560008573ffffffffffffffffffffffffffffffffffffffff1673ffffffffffffffffffffffffffffffffffffffff16815260200190815260200160002060008473ffffffffffffffffffffffffffffffffffffffff1673ffffffffffffffffffffffffffffffffffffffff16815260200190815260200160002060006101000a81548160ff0219169083151502179055508173ffffffffffffffffffffffffffffffffffffffff168373ffffffffffffffffffffffffffffffffffffffff167f17307eab39ab6107e8899845ad3d59bd9653f200f220920489ca2b5937696c318360405161221c9190612a1a565b60405180910390a3505050565b60008373ffffffffffffffffffffffffffffffffffffffff163b11156123da578273ffffffffffffffffffffffffffffffffffffffff1663150b7a0261226d611bba565b8685856040518563ffffffff1660e01b815260040161228f9493929190613ebf565b6020604051808303816000875af19250505080156122cb57506040513d601f19601f820116820180604052508101906122c89190613f20565b60015b61234f573d80600081146122fb576040519150601f19603f3d011682016040523d82523d6000602084013e612300565b606091505b50600081510361234757836040517f64a0ae9200000000000000000000000000000000000000000000000000000000815260040161233e9190612c05565b60405180910390fd5b805181602001fd5b63150b7a0260e01b7bffffffffffffffffffffffffffffffffffffffffffffffffffffffff1916817bffffffffffffffffffffffffffffffffffffffffffffffffffffffff1916146123d857836040517f64a0ae920000000000000000000000000000000000000000000000000000000081526004016123cf9190612c05565b60405180910390fd5b505b50505050565b606060405180602001604052806000815250905090565b60006002600083815260200190815260200160002060009054906101000a900473ffffffffffffffffffffffffffffffffffffffff169050919050565b600080600036905090506000612448612885565b905061245333610e65565b801561245f5750808210155b156124995760003682846124739190613f4d565b90809261248293929190613f8b565b9061248d9190613ffd565b60601c925050506124a6565b6124a1612894565b925050505b90565b80806124e25750600073ffffffffffffffffffffffffffffffffffffffff168273ffffffffffffffffffffffffffffffffffffffff1614155b156126165760006124f284611af5565b9050600073ffffffffffffffffffffffffffffffffffffffff168373ffffffffffffffffffffffffffffffffffffffff161415801561255d57508273ffffffffffffffffffffffffffffffffffffffff168173ffffffffffffffffffffffffffffffffffffffff1614155b8015612570575061256e8184611579565b155b156125b257826040517fa9fbf51f0000000000000000000000000000000000000000000000000000000081526004016125a99190612c05565b60405180910390fd5b811561261457838573ffffffffffffffffffffffffffffffffffffffff168273ffffffffffffffffffffffffffffffffffffffff167f8c5be1e5ebec7d5bd14f71427d1e84f3dd0314c0f7b2291e5b200ac8c7c3b92560405160405180910390a45b505b836004600085815260200190815260200160002060006101000a81548173ffffffffffffffffffffffffffffffffffffffff021916908373ffffffffffffffffffffffffffffffffffffffff16021790555050505050565b61267983838361289c565b61272d57600073ffffffffffffffffffffffffffffffffffffffff168373ffffffffffffffffffffffffffffffffffffffff16036126ee57806040517f7e2732890000000000000000000000000000000000000000000000000000000081526004016126e59190612f8a565b60405180910390fd5b81816040517f177e802f00000000000000000000000000000000000000000000000000000000815260040161272492919061405c565b60405180910390fd5b505050565b600080600090507a184f03e93ff9f4daa797ed6e38ed64bf6a1f0100000000000000008310612790577a184f03e93ff9f4daa797ed6e38ed64bf6a1f010000000000000000838161278657612785613e3b565b5b0492506040810190505b6d04ee2d6d415b85acef810000000083106127cd576d04ee2d6d415b85acef810000000083816127c3576127c2613e3b565b5b0492506020810190505b662386f26fc1000083106127fc57662386f26fc1000083816127f2576127f1613e3b565b5b0492506010810190505b6305f5e1008310612825576305f5e100838161281b5761281a613e3b565b5b0492506008810190505b612710831061284a5761271083816128405761283f613e3b565b5b0492506004810190505b6064831061286d576064838161286357612862613e3b565b5b0492506002810190505b600a831061287c576001810190505b80915050919050565b600061288f61295d565b905090565b600033905090565b60008073ffffffffffffffffffffffffffffffffffffffff168373ffffffffffffffffffffffffffffffffffffffff161415801561295457508273ffffffffffffffffffffffffffffffffffffffff168473ffffffffffffffffffffffffffffffffffffffff16148061291557506129148484611579565b5b8061295357508273ffffffffffffffffffffffffffffffffffffffff1661293b83611b7d565b73ffffffffffffffffffffffffffffffffffffffff16145b5b90509392505050565b60006014905090565b6000604051905090565b600080fd5b600080fd5b60007fffffffff0000000000000000000000000000000000000000000000000000000082169050919050565b6129af8161297a565b81146129ba57600080fd5b50565b6000813590506129cc816129a6565b92915050565b6000602082840312156129e8576129e7612970565b5b60006129f6848285016129bd565b91505092915050565b60008115159050919050565b612a14816129ff565b82525050565b6000602082019050612a2f6000830184612a0b565b92915050565b600073ffffffffffffffffffffffffffffffffffffffff82169050919050565b6000819050919050565b6000612a7a612a75612a7084612a35565b612a55565b612a35565b9050919050565b6000612a8c82612a5f565b9050919050565b6000612a9e82612a81565b9050919050565b612aae81612a93565b82525050565b6000602082019050612ac96000830184612aa5565b92915050565b600081519050919050565b600082825260208201905092915050565b60005b83811015612b09578082015181840152602081019050612aee565b60008484015250505050565b6000601f19601f8301169050919050565b6000612b3182612acf565b612b3b8185612ada565b9350612b4b818560208601612aeb565b612b5481612b15565b840191505092915050565b60006020820190508181036000830152612b798184612b26565b905092915050565b6000819050919050565b612b9481612b81565b8114612b9f57600080fd5b50565b600081359050612bb181612b8b565b92915050565b600060208284031215612bcd57612bcc612970565b5b6000612bdb84828501612ba2565b91505092915050565b6000612bef82612a35565b9050919050565b612bff81612be4565b82525050565b6000602082019050612c1a6000830184612bf6565b92915050565b612c2981612be4565b8114612c3457600080fd5b50565b600081359050612c4681612c20565b92915050565b60008060408385031215612c6357612c62612970565b5b6000612c7185828601612c37565b9250506020612c8285828601612ba2565b9150509250929050565b600080600060608486031215612ca557612ca4612970565b5b6000612cb386828701612c37565b9350506020612cc486828701612c37565b9250506040612cd586828701612ba2565b9150509250925092565b600080fd5b7f4e487b7100000000000000000000000000000000000000000000000000000000600052604160045260246000fd5b612d1c82612b15565b810181811067ffffffffffffffff82111715612d3b57612d3a612ce4565b5b80604052505050565b6000612d4e612966565b9050612d5a8282612d13565b919050565b600067ffffffffffffffff821115612d7a57612d79612ce4565b5b602082029050602081019050919050565b600080fd5b6000612da3612d9e84612d5f565b612d44565b90508083825260208201905060208402830185811115612dc657612dc5612d8b565b5b835b81811015612def5780612ddb8882612c37565b845260208401935050602081019050612dc8565b5050509392505050565b600082601f830112612e0e57612e0d612cdf565b5b8135612e1e848260208601612d90565b91505092915050565b600080fd5b600067ffffffffffffffff821115612e4757612e46612ce4565b5b612e5082612b15565b9050602081019050919050565b82818337600083830152505050565b6000612e7f612e7a84612e2c565b612d44565b905082815260208101848484011115612e9b57612e9a612e27565b5b612ea6848285612e5d565b509392505050565b600082601f830112612ec357612ec2612cdf565b5b8135612ed3848260208601612e6c565b91505092915050565b60008060008060808587031215612ef657612ef5612970565b5b6000612f0487828801612c37565b945050602085013567ffffffffffffffff811115612f2557612f24612975565b5b612f3187828801612df9565b935050604085013567ffffffffffffffff811115612f5257612f51612975565b5b612f5e87828801612eae565b9250506060612f6f87828801612ba2565b91505092959194509250565b612f8481612b81565b82525050565b6000602082019050612f9f6000830184612f7b565b92915050565b6000819050919050565b612fb881612fa5565b82525050565b6000602082019050612fd36000830184612faf565b92915050565b6000612fe482612a81565b9050919050565b612ff481612fd9565b82525050565b600060208201905061300f6000830184612feb565b92915050565b6000806040838503121561302c5761302b612970565b5b600061303a85828601612ba2565b925050602061304b85828601612c37565b9150509250929050565b60006020828403121561306b5761306a612970565b5b600061307984828501612c37565b91505092915050565b60006020828403121561309857613097612970565b5b600082013567ffffffffffffffff8111156130b6576130b5612975565b5b6130c284828501612eae565b91505092915050565b600080604083850312156130e2576130e1612970565b5b600083013567ffffffffffffffff811115613100576130ff612975565b5b61310c85828601612eae565b925050602061311d85828601612ba2565b9150509250929050565b613130816129ff565b811461313b57600080fd5b50565b60008135905061314d81613127565b92915050565b6000806040838503121561316a57613169612970565b5b600061317885828601612c37565b92505060206131898582860161313e565b9150509250929050565b600067ffffffffffffffff8211156131ae576131ad612ce4565b5b6131b782612b15565b9050602081019050919050565b60006131d76131d284613193565b612d44565b9050828152602081018484840111156131f3576131f2612e27565b5b6131fe848285612e5d565b509392505050565b600082601f83011261321b5761321a612cdf565b5b813561322b8482602086016131c4565b91505092915050565b6000806000806080858703121561324e5761324d612970565b5b600061325c87828801612c37565b945050602061326d87828801612c37565b935050604061327e87828801612ba2565b925050606085013567ffffffffffffffff81111561329f5761329e612975565b5b6132ab87828801613206565b91505092959194509250565b600081519050919050565b600082825260208201905092915050565b6000819050602082019050919050565b6132ec81612b81565b82525050565b60006132fe83836132e3565b60208301905092915050565b6000602082019050919050565b6000613322826132b7565b61332c81856132c2565b9350613337836132d3565b8060005b8381101561336857815161334f88826132f2565b975061335a8361330a565b92505060018101905061333b565b5085935050505092915050565b6000602082019050818103600083015261338f8184613317565b905092915050565b600080604083850312156133ae576133ad612970565b5b60006133bc85828601612c37565b92505060206133cd85828601612c37565b9150509250929050565b600081519050919050565b600082825260208201905092915050565b6000819050602082019050919050565b61340c81612be4565b82525050565b600061341e8383613403565b60208301905092915050565b6000602082019050919050565b6000613442826133d7565b61344c81856133e2565b9350613457836133f3565b8060005b8381101561348857815161346f8882613412565b975061347a8361342a565b92505060018101905061345b565b5085935050505092915050565b60006080820190506134aa6000830187612bf6565b81810360208301526134bc8186612b26565b90506134cb6040830185612f7b565b81810360608301526134dd8184613437565b905095945050505050565b7f4e487b7100000000000000000000000000000000000000000000000000000000600052602260045260246000fd5b6000600282049050600182168061352f57607f821691505b602082108103613542576135416134e8565b5b50919050565b600060608201905061355d6000830186612bf6565b61356a6020830185612f7b565b6135776040830184612bf6565b949350505050565b7f4e487b7100000000000000000000000000000000000000000000000000000000600052601160045260246000fd5b60006135b982612b81565b91507fffffffffffffffffffffffffffffffffffffffffffffffffffffffffffffffff82036135eb576135ea61357f565b5b600182019050919050565b60008190508160005260206000209050919050565b60006020601f8301049050919050565b600082821b905092915050565b6000600883026136587fffffffffffffffffffffffffffffffffffffffffffffffffffffffffffffffff8261361b565b613662868361361b565b95508019841693508086168417925050509392505050565b600061369561369061368b84612b81565b612a55565b612b81565b9050919050565b6000819050919050565b6136af8361367a565b6136c36136bb8261369c565b848454613628565b825550505050565b600090565b6136d86136cb565b6136e38184846136a6565b505050565b5b81811015613707576136fc6000826136d0565b6001810190506136e9565b5050565b601f82111561374c5761371d816135f6565b6137268461360b565b81016020851015613735578190505b6137496137418561360b565b8301826136e8565b50505b505050565b600082821c905092915050565b600061376f60001984600802613751565b1980831691505092915050565b6000613788838361375e565b9150826002028217905092915050565b6137a182612acf565b67ffffffffffffffff8111156137ba576137b9612ce4565b5b6137c48254613517565b6137cf82828561370b565b600060209050601f83116001811461380257600084156137f0578287015190505b6137fa858261377c565b865550613862565b601f198416613810866135f6565b60005b8281101561383857848901518255600182019150602085019450602081019050613813565b868310156138555784890151613851601f89168261375e565b8355505b6001600288020188555050505b505050505050565b7f4e487b7100000000000000000000000000000000000000000000000000000000600052603260045260246000fd5b7f546f6b656e20646f6573206e6f74206578697374000000000000000000000000600082015250565b60006138cf601483612ada565b91506138da82613899565b602082019050919050565b600060208201905081810360008301526138fe816138c2565b9050919050565b7f4e6f7420617574686f72697a656420746f207369676e00000000000000000000600082015250565b600061393b601683612ada565b915061394682613905565b602082019050919050565b6000602082019050818103600083015261396a8161392e565b9050919050565b7f416c7265616479207369676e6564000000000000000000000000000000000000600082015250565b60006139a7600e83612ada565b91506139b282613971565b602082019050919050565b600060208201905081810360008301526139d68161399a565b9050919050565b6000819050919050565b6139f86139f382612fa5565b6139dd565b82525050565b6000613a0a82856139e7565b602082019150613a1a82846139e7565b6020820191508190509392505050565b7f537562646f6d61696e2069732072657175697265640000000000000000000000600082015250565b6000613a60601583612ada565b9150613a6b82613a2a565b602082019050919050565b60006020820190508181036000830152613a8f81613a53565b9050919050565b600081905092915050565b6000613aac82612acf565b613ab68185613a96565b9350613ac6818560208601612aeb565b80840191505092915050565b6000613ade8284613aa1565b915081905092915050565b6000819050919050565b600067ffffffffffffffff82169050919050565b6000613b22613b1d613b1884613ae9565b612a55565b613af3565b9050919050565b613b3281613b07565b82525050565b600060a082019050613b4d6000830188612faf565b613b5a6020830187612faf565b613b676040830186612bf6565b613b746060830185612bf6565b613b816080830184613b29565b9695505050505050565b6000604082019050613ba06000830185612faf565b613bad6020830184612bf6565b9392505050565b7f746f6b656e496400000000000000000000000000000000000000000000000000600082015250565b6000613bea600783612ada565b9150613bf582613bb4565b602082019050919050565b6000606082019050613c156000830185612faf565b8181036020830152613c2681613bdd565b90508181036040830152613c3a8184612b26565b90509392505050565b6000613c4f8285613aa1565b9150613c5b8284613aa1565b91508190509392505050565b7f517565727920666f72206e6f6e6578697374656e7420746f6b656e0000000000600082015250565b6000613c9d601b83612ada565b9150613ca882613c67565b602082019050919050565b60006020820190508181036000830152613ccc81613c90565b9050919050565b7f4e6f7420617574686f72697a6564000000000000000000000000000000000000600082015250565b6000613d09600e83612ada565b9150613d1482613cd3565b602082019050919050565b60006020820190508181036000830152613d3881613cfc565b9050919050565b7f526f6f74206e6f6465206e6f7420736574000000000000000000000000000000600082015250565b6000613d75601183612ada565b9150613d8082613d3f565b602082019050919050565b60006020820190508181036000830152613da481613d68565b9050919050565b6000606082019050613dc06000830186612faf565b613dcd6020830185612faf565b613dda6040830184612bf6565b949350505050565b613deb81612fa5565b8114613df657600080fd5b50565b600081519050613e0881613de2565b92915050565b600060208284031215613e2457613e23612970565b5b6000613e3284828501613df9565b91505092915050565b7f4e487b7100000000000000000000000000000000000000000000000000000000600052601260045260246000fd5b600081519050919050565b600082825260208201905092915050565b6000613e9182613e6a565b613e9b8185613e75565b9350613eab818560208601612aeb565b613eb481612b15565b840191505092915050565b6000608082019050613ed46000830187612bf6565b613ee16020830186612bf6565b613eee6040830185612f7b565b8181036060830152613f008184613e86565b905095945050505050565b600081519050613f1a816129a6565b92915050565b600060208284031215613f3657613f35612970565b5b6000613f4484828501613f0b565b91505092915050565b6000613f5882612b81565b9150613f6383612b81565b9250828203905081811115613f7b57613f7a61357f565b5b92915050565b600080fd5b600080fd5b60008085851115613f9f57613f9e613f81565b5b83861115613fb057613faf613f86565b5b6001850283019150848603905094509492505050565b600082905092915050565b60007fffffffffffffffffffffffffffffffffffffffff00000000000000000000000082169050919050565b60006140098383613fc6565b826140148135613fd1565b925060148210156140545761404f7fffffffffffffffffffffffffffffffffffffffff0000000000000000000000008360140360080261361b565b831692505b505092915050565b60006040820190506140716000830185612bf6565b61407e6020830184612f7b565b939250505056fea264697066735822122019f463f4251b258d8e8f803d73868cd9c18c0bb09fbed441a514842ba38141bc64736f6c63430008180033",
  "linkReferences": {},
  "deployedLinkReferences": {}
}