{
  "_format": "hh-sol-artifact-1",
  "contractName": "SimpleSignContract",
  "sourceName": "contracts/SSC/SimpleSignContract.sol",
  "abi": [
    {
      "inputs": [
        {
          "internalType": "address",
          "name": "ensAddress",
          "type": "address"
        },
        {
          "internalType": "address",
          "name": "resolverAddress",
          "type": "address"
        },
        {
          "internalType": "address",
          "name": "trustedForwarder",
          "type": "address"
        }
      ],
      "stateMutability": "payable",
      "type": "constructor"
    },
    {
      "inputs": [
        {
          "internalType": "address",
          "name": "sender",
          "type": "address"
        },
        {
          "internalType": "uint256",
          "name": "tokenId",
          "type": "uint256"
        },
        {
          "internalType": "address",
          "name": "owner",
          "type": "address"
        }
      ],
      "name": "ERC721IncorrectOwner",
      "type": "error"
    },
    {
      "inputs": [
        {
          "internalType": "address",
          "name": "operator",
          "type": "address"
        },
        {
          "internalType": "uint256",
          "name": "tokenId",
          "type": "uint256"
        }
      ],
      "name": "ERC721InsufficientApproval",
      "type": "error"
    },
    {
      "inputs": [
        {
          "internalType": "address",
          "name": "approver",
          "type": "address"
        }
      ],
      "name": "ERC721InvalidApprover",
      "type": "error"
    },
    {
      "inputs": [
        {
          "internalType": "address",
          "name": "operator",
          "type": "address"
        }
      ],
      "name": "ERC721InvalidOperator",
      "type": "error"
    },
    {
      "inputs": [
        {
          "internalType": "address",
          "name": "owner",
          "type": "address"
        }
      ],
      "name": "ERC721InvalidOwner",
      "type": "error"
    },
    {
      "inputs": [
        {
          "internalType": "address",
          "name": "receiver",
          "type": "address"
        }
      ],
      "name": "ERC721InvalidReceiver",
      "type": "error"
    },
    {
      "inputs": [
        {
          "internalType": "address",
          "name": "sender",
          "type": "address"
        }
      ],
      "name": "ERC721InvalidSender",
      "type": "error"
    },
    {
      "inputs": [
        {
          "internalType": "uint256",
          "name": "tokenId",
          "type": "uint256"
        }
      ],
      "name": "ERC721NonexistentToken",
      "type": "error"
    },
    {
      "anonymous": false,
      "inputs": [
        {
          "indexed": true,
          "internalType": "address",
          "name": "owner",
          "type": "address"
        },
        {
          "indexed": true,
          "internalType": "address",
          "name": "approved",
          "type": "address"
        },
        {
          "indexed": true,
          "internalType": "uint256",
          "name": "tokenId",
          "type": "uint256"
        }
      ],
      "name": "Approval",
      "type": "event"
    },
    {
      "anonymous": false,
      "inputs": [
        {
          "indexed": true,
          "internalType": "address",
          "name": "owner",
          "type": "address"
        },
        {
          "indexed": true,
          "internalType": "address",
          "name": "operator",
          "type": "address"
        },
        {
          "indexed": false,
          "internalType": "bool",
          "name": "approved",
          "type": "bool"
        }
      ],
      "name": "ApprovalForAll",
      "type": "event"
    },
    {
      "anonymous": false,
      "inputs": [
        {
          "indexed": true,
          "internalType": "address",
          "name": "from",
          "type": "address"
        },
        {
          "indexed": true,
          "internalType": "address",
          "name": "to",
          "type": "address"
        },
        {
          "indexed": true,
          "internalType": "uint256",
          "name": "tokenId",
          "type": "uint256"
        }
      ],
      "name": "Transfer",
      "type": "event"
    },
    {
      "inputs": [
        {
          "internalType": "address",
          "name": "to",
          "type": "address"
        },
        {
          "internalType": "uint256",
          "name": "tokenId",
          "type": "uint256"
        }
      ],
      "name": "approve",
      "outputs": [],
      "stateMutability": "nonpayable",
      "type": "function"
    },
    {
      "inputs": [
        {
          "internalType": "address",
          "name": "owner",
          "type": "address"
        }
      ],
      "name": "balanceOf",
      "outputs": [
        {
          "internalType": "uint256",
          "name": "",
          "type": "uint256"
        }
      ],
      "stateMutability": "view",
      "type": "function"
    },
    {
      "inputs": [],
      "name": "currentOwner",
      "outputs": [
        {
          "internalType": "address",
          "name": "",
          "type": "address"
        }
      ],
      "stateMutability": "view",
      "type": "function"
    },
    {
      "inputs": [],
      "name": "ens",
      "outputs": [
        {
          "internalType": "contract ENS",
          "name": "",
          "type": "address"
        }
      ],
      "stateMutability": "view",
      "type": "function"
    },
    {
      "inputs": [],
      "name": "gasFund",
      "outputs": [
        {
          "internalType": "uint256",
          "name": "",
          "type": "uint256"
        }
      ],
      "stateMutability": "view",
      "type": "function"
    },
    {
      "inputs": [
        {
          "internalType": "uint256",
          "name": "tokenId",
          "type": "uint256"
        }
      ],
      "name": "getApproved",
      "outputs": [
        {
          "internalType": "address",
          "name": "",
          "type": "address"
        }
      ],
      "stateMutability": "view",
      "type": "function"
    },
    {
      "inputs": [],
      "name": "getAuthorizedContracts",
      "outputs": [
        {
          "internalType": "uint256[]",
          "name": "",
          "type": "uint256[]"
        }
      ],
      "stateMutability": "view",
      "type": "function"
    },
    {
      "inputs": [
        {
          "internalType": "uint256",
          "name": "tokenId",
          "type": "uint256"
        }
      ],
      "name": "getContractData",
      "outputs": [
        {
          "internalType": "address",
          "name": "issuer",
          "type": "address"
        },
        {
          "internalType": "string",
          "name": "encryptedData",
          "type": "string"
        },
        {
          "internalType": "uint256",
          "name": "expirationTime",
          "type": "uint256"
        },
        {
          "internalType": "address[]",
          "name": "authorizedAddresses",
          "type": "address[]"
        }
      ],
      "stateMutability": "view",
      "type": "function"
    },
    {
      "inputs": [],
      "name": "getIssuerContracts",
      "outputs": [
        {
          "internalType": "uint256[]",
          "name": "",
          "type": "uint256[]"
        }
      ],
      "stateMutability": "view",
      "type": "function"
    },
    {
      "inputs": [],
      "name": "getRootNode",
      "outputs": [
        {
          "internalType": "bytes32",
          "name": "",
          "type": "bytes32"
        }
      ],
      "stateMutability": "view",
      "type": "function"
    },
    {
      "inputs": [
        {
          "internalType": "address",
          "name": "owner",
          "type": "address"
        },
        {
          "internalType": "address",
          "name": "operator",
          "type": "address"
        }
      ],
      "name": "isApprovedForAll",
      "outputs": [
        {
          "internalType": "bool",
          "name": "",
          "type": "bool"
        }
      ],
      "stateMutability": "view",
      "type": "function"
    },
    {
      "inputs": [
        {
          "internalType": "uint256",
          "name": "tokenId",
          "type": "uint256"
        },
        {
          "internalType": "address",
          "name": "addr",
          "type": "address"
        }
      ],
      "name": "isAuthorized",
      "outputs": [
        {
          "internalType": "bool",
          "name": "",
          "type": "bool"
        }
      ],
      "stateMutability": "view",
      "type": "function"
    },
    {
      "inputs": [
        {
          "internalType": "uint256",
          "name": "tokenId",
          "type": "uint256"
        },
        {
          "internalType": "address",
          "name": "addr",
          "type": "address"
        }
      ],
      "name": "isSignd",
      "outputs": [
        {
          "internalType": "bool",
          "name": "",
          "type": "bool"
        }
      ],
      "stateMutability": "view",
      "type": "function"
    },
    {
      "inputs": [
        {
          "internalType": "address",
          "name": "forwarder",
          "type": "address"
        }
      ],
      "name": "isTrustedForwarder",
      "outputs": [
        {
          "internalType": "bool",
          "name": "",
          "type": "bool"
        }
      ],
      "stateMutability": "view",
      "type": "function"
    },
    {
      "inputs": [
        {
          "internalType": "address",
          "name": "issuer",
          "type": "address"
        },
        {
          "internalType": "address[]",
          "name": "authorizedAddresses",
          "type": "address[]"
        },
        {
          "internalType": "string",
          "name": "encryptedData",
          "type": "string"
        },
        {
          "internalType": "uint256",
          "name": "expirationTime",
          "type": "uint256"
        },
        {
          "internalType": "string",
          "name": "subdomain",
          "type": "string"
        }
      ],
      "name": "mint",
      "outputs": [
        {
          "internalType": "uint256",
          "name": "",
          "type": "uint256"
        }
      ],
      "stateMutability": "nonpayable",
      "type": "function"
    },
    {
      "inputs": [],
      "name": "name",
      "outputs": [
        {
          "internalType": "string",
          "name": "",
          "type": "string"
        }
      ],
      "stateMutability": "view",
      "type": "function"
    },
    {
      "inputs": [],
      "name": "originalOwner",
      "outputs": [
        {
          "internalType": "address",
          "name": "",
          "type": "address"
        }
      ],
      "stateMutability": "view",
      "type": "function"
    },
    {
      "inputs": [
        {
          "internalType": "uint256",
          "name": "tokenId",
          "type": "uint256"
        }
      ],
      "name": "ownerOf",
      "outputs": [
        {
          "internalType": "address",
          "name": "",
          "type": "address"
        }
      ],
      "stateMutability": "view",
      "type": "function"
    },
    {
      "inputs": [],
      "name": "resolver",
      "outputs": [
        {
          "internalType": "contract PublicResolver",
          "name": "",
          "type": "address"
        }
      ],
      "stateMutability": "view",
      "type": "function"
    },
    {
      "inputs": [],
      "name": "rootNode",
      "outputs": [
        {
          "internalType": "bytes32",
          "name": "",
          "type": "bytes32"
        }
      ],
      "stateMutability": "view",
      "type": "function"
    },
    {
      "inputs": [
        {
          "internalType": "address",
          "name": "from",
          "type": "address"
        },
        {
          "internalType": "address",
          "name": "to",
          "type": "address"
        },
        {
          "internalType": "uint256",
          "name": "tokenId",
          "type": "uint256"
        }
      ],
      "name": "safeTransferFrom",
      "outputs": [],
      "stateMutability": "nonpayable",
      "type": "function"
    },
    {
      "inputs": [
        {
          "internalType": "address",
          "name": "from",
          "type": "address"
        },
        {
          "internalType": "address",
          "name": "to",
          "type": "address"
        },
        {
          "internalType": "uint256",
          "name": "tokenId",
          "type": "uint256"
        },
        {
          "internalType": "bytes",
          "name": "data",
          "type": "bytes"
        }
      ],
      "name": "safeTransferFrom",
      "outputs": [],
      "stateMutability": "nonpayable",
      "type": "function"
    },
    {
      "inputs": [
        {
          "internalType": "address",
          "name": "operator",
          "type": "address"
        },
        {
          "internalType": "bool",
          "name": "approved",
          "type": "bool"
        }
      ],
      "name": "setApprovalForAll",
      "outputs": [],
      "stateMutability": "nonpayable",
      "type": "function"
    },
    {
      "inputs": [
        {
          "internalType": "string",
          "name": "domain",
          "type": "string"
        }
      ],
      "name": "setRootNode",
      "outputs": [],
      "stateMutability": "nonpayable",
      "type": "function"
    },
    {
      "inputs": [
        {
          "internalType": "uint256",
          "name": "tokenId",
          "type": "uint256"
        }
      ],
      "name": "sign2Contract",
      "outputs": [],
      "stateMutability": "nonpayable",
      "type": "function"
    },
    {
      "inputs": [],
      "name": "subNode",
      "outputs": [
        {
          "internalType": "bytes32",
          "name": "",
          "type": "bytes32"
        }
      ],
      "stateMutability": "view",
      "type": "function"
    },
    {
      "inputs": [
        {
          "internalType": "bytes4",
          "name": "interfaceId",
          "type": "bytes4"
        }
      ],
      "name": "supportsInterface",
      "outputs": [
        {
          "internalType": "bool",
          "name": "",
          "type": "bool"
        }
      ],
      "stateMutability": "view",
      "type": "function"
    },
    {
      "inputs": [],
      "name": "symbol",
      "outputs": [
        {
          "internalType": "string",
          "name": "",
          "type": "string"
        }
      ],
      "stateMutability": "view",
      "type": "function"
    },
    {
      "inputs": [
        {
          "internalType": "uint256",
          "name": "tokenId",
          "type": "uint256"
        }
      ],
      "name": "tokenURI",
      "outputs": [
        {
          "internalType": "string",
          "name": "",
          "type": "string"
        }
      ],
      "stateMutability": "view",
      "type": "function"
    },
    {
      "inputs": [
        {
          "internalType": "address",
          "name": "from",
          "type": "address"
        },
        {
          "internalType": "address",
          "name": "to",
          "type": "address"
        },
        {
          "internalType": "uint256",
          "name": "tokenId",
          "type": "uint256"
        }
      ],
      "name": "transferFrom",
      "outputs": [],
      "stateMutability": "nonpayable",
      "type": "function"
    },
    {
      "inputs": [],
      "name": "trustedForwarder",
      "outputs": [
        {
          "internalType": "address",
          "name": "",
          "type": "address"
        }
      ],
      "stateMutability": "view",
      "type": "function"
    }
  ],
  "bytecode": "0x60a06040526000600d5560405162004fb038038062004fb083398181016040528101906200002e9190620003a4565b8230826040518060400160405280600881526020017f5353435f4e414d450000000000000000000000000000000000000000000000008152506040518060400160405280600a81526020017f5353435f53594d424f4c000000000000000000000000000000000000000000008152508160009081620000ae91906200067a565b508060019081620000c091906200067a565b5050508073ffffffffffffffffffffffffffffffffffffffff1660808173ffffffffffffffffffffffffffffffffffffffff16815250505060008273ffffffffffffffffffffffffffffffffffffffff166302571be37f91d1777781884d03a6757a803996e38de2a42967fb37eeaca72729271025a9e260001b6040518263ffffffff1660e01b81526004016200015891906200077c565b602060405180830381865afa15801562000176573d6000803e3d6000fd5b505050506040513d601f19601f820116820180604052508101906200019c919062000799565b90508073ffffffffffffffffffffffffffffffffffffffff16631e83409a836040518263ffffffff1660e01b8152600401620001d99190620007dc565b6020604051808303816000875af1158015620001f9573d6000803e3d6000fd5b505050506040513d601f19601f820116820180604052508101906200021f91906200082a565b5050505082600660006101000a81548173ffffffffffffffffffffffffffffffffffffffff021916908373ffffffffffffffffffffffffffffffffffffffff16021790555081600760006101000a81548173ffffffffffffffffffffffffffffffffffffffff021916908373ffffffffffffffffffffffffffffffffffffffff1602179055506000801b60088190555033600c60006101000a81548173ffffffffffffffffffffffffffffffffffffffff021916908373ffffffffffffffffffffffffffffffffffffffff16021790555033600b60006101000a81548173ffffffffffffffffffffffffffffffffffffffff021916908373ffffffffffffffffffffffffffffffffffffffff1602179055505050506200085c565b600080fd5b600073ffffffffffffffffffffffffffffffffffffffff82169050919050565b60006200036c826200033f565b9050919050565b6200037e816200035f565b81146200038a57600080fd5b50565b6000815190506200039e8162000373565b92915050565b600080600060608486031215620003c057620003bf6200033a565b5b6000620003d0868287016200038d565b9350506020620003e3868287016200038d565b9250506040620003f6868287016200038d565b9150509250925092565b600081519050919050565b7f4e487b7100000000000000000000000000000000000000000000000000000000600052604160045260246000fd5b7f4e487b7100000000000000000000000000000000000000000000000000000000600052602260045260246000fd5b600060028204905060018216806200048257607f821691505b6020821081036200049857620004976200043a565b5b50919050565b60008190508160005260206000209050919050565b60006020601f8301049050919050565b600082821b905092915050565b600060088302620005027fffffffffffffffffffffffffffffffffffffffffffffffffffffffffffffffff82620004c3565b6200050e8683620004c3565b95508019841693508086168417925050509392505050565b6000819050919050565b6000819050919050565b60006200055b620005556200054f8462000526565b62000530565b62000526565b9050919050565b6000819050919050565b62000577836200053a565b6200058f620005868262000562565b848454620004d0565b825550505050565b600090565b620005a662000597565b620005b38184846200056c565b505050565b5b81811015620005db57620005cf6000826200059c565b600181019050620005b9565b5050565b601f8211156200062a57620005f4816200049e565b620005ff84620004b3565b810160208510156200060f578190505b620006276200061e85620004b3565b830182620005b8565b50505b505050565b600082821c905092915050565b60006200064f600019846008026200062f565b1980831691505092915050565b60006200066a83836200063c565b9150826002028217905092915050565b620006858262000400565b67ffffffffffffffff811115620006a157620006a06200040b565b5b620006ad825462000469565b620006ba828285620005df565b600060209050601f831160018114620006f25760008415620006dd578287015190505b620006e985826200065c565b86555062000759565b601f19841662000702866200049e565b60005b828110156200072c5784890151825560018201915060208501945060208101905062000705565b868310156200074c578489015162000748601f8916826200063c565b8355505b6001600288020188555050505b505050505050565b6000819050919050565b620007768162000761565b82525050565b60006020820190506200079360008301846200076b565b92915050565b600060208284031215620007b257620007b16200033a565b5b6000620007c2848285016200038d565b91505092915050565b620007d6816200035f565b82525050565b6000602082019050620007f36000830184620007cb565b92915050565b620008048162000761565b81146200081057600080fd5b50565b6000815190506200082481620007f9565b92915050565b6000602082840312156200084357620008426200033a565b5b6000620008538482850162000813565b91505092915050565b60805161473862000878600039600061104601526147386000f3fe608060405234801561001057600080fd5b50600436106101e55760003560e01c806365171b121161010f578063c714999e116100a2578063e985e9c511610071578063e985e9c5146105a8578063ef1f3757146105d8578063f1fffdcb1461060b578063faff50a814610629576101e5565b8063c714999e1461051e578063c75984fb1461053c578063c87b56dd1461055a578063cf2807d91461058a576101e5565b806395d89b41116100de57806395d89b41146104aa578063a22cb465146104c8578063b387ef92146104e4578063b88d4fde14610502576101e5565b806365171b121461042257806370a08231146104405780637da0a8771461047057806383ae94671461048e576101e5565b80633cbb68331161018757806350a797671161015657806350a7976714610362578063572b6c0514610392578063609c6d7f146103c25780636352211e146103f2576101e5565b80633cbb6833146102dc5780633f15457f146102f857806342842e0e146103165780634c05c8f814610332576101e5565b8063081812fc116101c3578063081812fc14610256578063095ea7b31461028657806323b872dd146102a257806338d1fcc3146102be576101e5565b806301ffc9a7146101ea57806304f3bcec1461021a57806306fdde0314610238575b600080fd5b61020460048036038101906101ff9190612e17565b610647565b6040516102119190612e5f565b60405180910390f35b610222610729565b60405161022f9190612ef9565b60405180910390f35b61024061074f565b60405161024d9190612fa4565b60405180910390f35b610270600480360381019061026b9190612ffc565b6107e1565b60405161027d919061304a565b60405180910390f35b6102a0600480360381019061029b9190613091565b6107fd565b005b6102bc60048036038101906102b791906130d1565b610813565b005b6102c6610915565b6040516102d3919061313d565b60405180910390f35b6102f660048036038101906102f19190612ffc565b61091f565b005b610300610b2c565b60405161030d9190613179565b60405180910390f35b610330600480360381019061032b91906130d1565b610b52565b005b61034c60048036038101906103479190613194565b610b72565b6040516103599190612e5f565b60405180910390f35b61037c600480360381019061037791906133d1565b610c22565b60405161038991906134af565b60405180910390f35b6103ac60048036038101906103a791906134ca565b610ec1565b6040516103b99190612e5f565b60405180910390f35b6103dc60048036038101906103d79190613194565b610f00565b6040516103e99190612e5f565b60405180910390f35b61040c60048036038101906104079190612ffc565b610f70565b604051610419919061304a565b60405180910390f35b61042a610f82565b604051610437919061313d565b60405180910390f35b61045a600480360381019061045591906134ca565b610f88565b60405161046791906134af565b60405180910390f35b610478611042565b604051610485919061304a565b60405180910390f35b6104a860048036038101906104a391906134f7565b61106a565b005b6104b26110c3565b6040516104bf9190612fa4565b60405180910390f35b6104e260048036038101906104dd919061356c565b611155565b005b6104ec61116b565b6040516104f9919061304a565b60405180910390f35b61051c6004803603810190610517919061364d565b611191565b005b6105266111ae565b60405161053391906134af565b60405180910390f35b6105446111b4565b604051610551919061378e565b60405180910390f35b610574600480360381019061056f9190612ffc565b611249565b6040516105819190612fa4565b60405180910390f35b6105926112b2565b60405161059f919061378e565b60405180910390f35b6105c260048036038101906105bd91906137b0565b611347565b6040516105cf9190612e5f565b60405180910390f35b6105f260048036038101906105ed9190612ffc565b6113db565b60405161060294939291906138ae565b60405180910390f35b61061361182d565b604051610620919061304a565b60405180910390f35b610631611853565b60405161063e919061313d565b60405180910390f35b60007f80ac58cd000000000000000000000000000000000000000000000000000000007bffffffffffffffffffffffffffffffffffffffffffffffffffffffff1916827bffffffffffffffffffffffffffffffffffffffffffffffffffffffff1916148061071257507f5b5e139f000000000000000000000000000000000000000000000000000000007bffffffffffffffffffffffffffffffffffffffffffffffffffffffff1916827bffffffffffffffffffffffffffffffffffffffffffffffffffffffff1916145b80610722575061072182611859565b5b9050919050565b600760009054906101000a900473ffffffffffffffffffffffffffffffffffffffff1681565b60606000805461075e90613930565b80601f016020809104026020016040519081016040528092919081815260200182805461078a90613930565b80156107d75780601f106107ac576101008083540402835291602001916107d7565b820191906000526020600020905b8154815290600101906020018083116107ba57829003601f168201915b5050505050905090565b60006107ec826118c3565b506107f68261194b565b9050919050565b61080f828261080a611988565b611997565b5050565b600073ffffffffffffffffffffffffffffffffffffffff168273ffffffffffffffffffffffffffffffffffffffff16036108855760006040517f64a0ae9200000000000000000000000000000000000000000000000000000000815260040161087c919061304a565b60405180910390fd5b60006108998383610894611988565b6119a9565b90508373ffffffffffffffffffffffffffffffffffffffff168173ffffffffffffffffffffffffffffffffffffffff161461090f578382826040517f64283d7b00000000000000000000000000000000000000000000000000000000815260040161090693929190613961565b60405180910390fd5b50505050565b6000600854905090565b61092881611bc3565b610967576040517f08c379a000000000000000000000000000000000000000000000000000000000815260040161095e906139e4565b60405180910390fd5b6000600e6000838152602001908152602001600020905080600101600061098c611988565b73ffffffffffffffffffffffffffffffffffffffff1673ffffffffffffffffffffffffffffffffffffffff16815260200190815260200160002060009054906101000a900460ff16610a13576040517f08c379a0000000000000000000000000000000000000000000000000000000008152600401610a0a90613a50565b60405180910390fd5b601160008381526020019081526020016000206000610a30611988565b73ffffffffffffffffffffffffffffffffffffffff1673ffffffffffffffffffffffffffffffffffffffff16815260200190815260200160002060009054906101000a900460ff1615610ab8576040517f08c379a0000000000000000000000000000000000000000000000000000000008152600401610aaf90613abc565b60405180910390fd5b6001601160008481526020019081526020016000206000610ad7611988565b73ffffffffffffffffffffffffffffffffffffffff1673ffffffffffffffffffffffffffffffffffffffff16815260200190815260200160002060006101000a81548160ff0219169083151502179055505050565b600660009054906101000a900473ffffffffffffffffffffffffffffffffffffffff1681565b610b6d83838360405180602001604052806000815250611191565b505050565b6000610b7d83611bc3565b610bbc576040517f08c379a0000000000000000000000000000000000000000000000000000000008152600401610bb3906139e4565b60405180910390fd5b6011600084815260200190815260200160002060008373ffffffffffffffffffffffffffffffffffffffff1673ffffffffffffffffffffffffffffffffffffffff16815260200190815260200160002060009054906101000a900460ff16905092915050565b6000610c2d82611bd1565b6000600d6000815480929190610c4290613b0b565b919050559050610c523082611eb3565b6000600e60008381526020019081526020016000209050878160000160006101000a81548173ffffffffffffffffffffffffffffffffffffffff021916908373ffffffffffffffffffffffffffffffffffffffff16021790555085816002019081610cbd9190613cf5565b50848160030181905550600f60008973ffffffffffffffffffffffffffffffffffffffff1673ffffffffffffffffffffffffffffffffffffffff16815260200190815260200160002082908060018154018082558091505060019003906000526020600020016000909190919091505560005b8751811015610e3a5760018260010160008a8481518110610d5457610d53613dc7565b5b602002602001015173ffffffffffffffffffffffffffffffffffffffff1673ffffffffffffffffffffffffffffffffffffffff16815260200190815260200160002060006101000a81548160ff02191690831515021790555060106000898381518110610dc457610dc3613dc7565b5b602002602001015173ffffffffffffffffffffffffffffffffffffffff1673ffffffffffffffffffffffffffffffffffffffff1681526020019081526020016000208390806001815401808255809150506001900390600052602060002001600090919091909150558080600101915050610d30565b50610e6a600660009054906101000a900473ffffffffffffffffffffffffffffffffffffffff1660085486611fac565b610ea9576040517f08c379a0000000000000000000000000000000000000000000000000000000008152600401610ea090613e42565b60405180910390fd5b610eb384836120b3565b819250505095945050505050565b6000610ecb611042565b73ffffffffffffffffffffffffffffffffffffffff168273ffffffffffffffffffffffffffffffffffffffff16149050919050565b600080600e600085815260200190815260200160002090508060010160008473ffffffffffffffffffffffffffffffffffffffff1673ffffffffffffffffffffffffffffffffffffffff16815260200190815260200160002060009054906101000a900460ff1691505092915050565b6000610f7b826118c3565b9050919050565b60095481565b60008073ffffffffffffffffffffffffffffffffffffffff168273ffffffffffffffffffffffffffffffffffffffff1603610ffb5760006040517f89c62b64000000000000000000000000000000000000000000000000000000008152600401610ff2919061304a565b60405180910390fd5b600360008373ffffffffffffffffffffffffffffffffffffffff1673ffffffffffffffffffffffffffffffffffffffff168152602001908152602001600020549050919050565b60007f0000000000000000000000000000000000000000000000000000000000000000905090565b7f4f5b812789fc606be1b3b16908db13fc7a9adf7ca72641f84d75b47069d3d7f081805190602001206040516020016110a4929190613e83565b6040516020818303038152906040528051906020012060088190555050565b6060600180546110d290613930565b80601f01602080910402602001604051908101604052809291908181526020018280546110fe90613930565b801561114b5780601f106111205761010080835404028352916020019161114b565b820191906000526020600020905b81548152906001019060200180831161112e57829003601f168201915b5050505050905090565b611167611160611988565b8383612341565b5050565b600b60009054906101000a900473ffffffffffffffffffffffffffffffffffffffff1681565b61119c848484610813565b6111a8848484846124b0565b50505050565b600a5481565b6060600f60003373ffffffffffffffffffffffffffffffffffffffff1673ffffffffffffffffffffffffffffffffffffffff16815260200190815260200160002080548060200260200160405190810160405280929190818152602001828054801561123f57602002820191906000526020600020905b81548152602001906001019080831161122b575b5050505050905090565b6060611254826118c3565b50600061125f612667565b9050600081511161127f57604051806020016040528060008152506112aa565b806112898461267e565b60405160200161129a929190613eeb565b6040516020818303038152906040525b915050919050565b6060601060003373ffffffffffffffffffffffffffffffffffffffff1673ffffffffffffffffffffffffffffffffffffffff16815260200190815260200160002080548060200260200160405190810160405280929190818152602001828054801561133d57602002820191906000526020600020905b815481526020019060010190808311611329575b5050505050905090565b6000600560008473ffffffffffffffffffffffffffffffffffffffff1673ffffffffffffffffffffffffffffffffffffffff16815260200190815260200160002060008373ffffffffffffffffffffffffffffffffffffffff1673ffffffffffffffffffffffffffffffffffffffff16815260200190815260200160002060009054906101000a900460ff16905092915050565b60006060600060606113ec85611bc3565b61142b576040517f08c379a000000000000000000000000000000000000000000000000000000000815260040161142290613f5b565b60405180910390fd5b6000600e600087815260200190815260200160002090508060000160009054906101000a900473ffffffffffffffffffffffffffffffffffffffff1673ffffffffffffffffffffffffffffffffffffffff163373ffffffffffffffffffffffffffffffffffffffff1614806114eb57508060010160003373ffffffffffffffffffffffffffffffffffffffff1673ffffffffffffffffffffffffffffffffffffffff16815260200190815260200160002060009054906101000a900460ff165b61152a576040517f08c379a000000000000000000000000000000000000000000000000000000000815260040161152190613fc7565b60405180910390fd5b6000805b601060003373ffffffffffffffffffffffffffffffffffffffff1673ffffffffffffffffffffffffffffffffffffffff168152602001908152602001600020805490508110156115f65787601060003373ffffffffffffffffffffffffffffffffffffffff1673ffffffffffffffffffffffffffffffffffffffff16815260200190815260200160002082815481106115ca576115c9613dc7565b5b9060005260206000200154036115e95781806115e590613b0b565b9250505b808060010191505061152e565b5060008167ffffffffffffffff811115611613576116126131d9565b5b6040519080825280602002602001820160405280156116415781602001602082028036833780820191505090505b5090506000805b601060003373ffffffffffffffffffffffffffffffffffffffff1673ffffffffffffffffffffffffffffffffffffffff1681526020019081526020016000208054905081101561175e5789601060003373ffffffffffffffffffffffffffffffffffffffff1673ffffffffffffffffffffffffffffffffffffffff16815260200190815260200160002082815481106116e4576116e3613dc7565b5b906000526020600020015403611751573383838151811061170857611707613dc7565b5b602002602001019073ffffffffffffffffffffffffffffffffffffffff16908173ffffffffffffffffffffffffffffffffffffffff1681525050818061174d90613b0b565b9250505b8080600101915050611648565b508360000160009054906101000a900473ffffffffffffffffffffffffffffffffffffffff168460020185600301548482805461179a90613930565b80601f01602080910402602001604051908101604052809291908181526020018280546117c690613930565b80156118135780601f106117e857610100808354040283529160200191611813565b820191906000526020600020905b8154815290600101906020018083116117f657829003601f168201915b505050505092509750975097509750505050509193509193565b600c60009054906101000a900473ffffffffffffffffffffffffffffffffffffffff1681565b60085481565b60007f01ffc9a7000000000000000000000000000000000000000000000000000000007bffffffffffffffffffffffffffffffffffffffffffffffffffffffff1916827bffffffffffffffffffffffffffffffffffffffffffffffffffffffff1916149050919050565b6000806118cf8361274c565b9050600073ffffffffffffffffffffffffffffffffffffffff168173ffffffffffffffffffffffffffffffffffffffff160361194257826040517f7e27328900000000000000000000000000000000000000000000000000000000815260040161193991906134af565b60405180910390fd5b80915050919050565b60006004600083815260200190815260200160002060009054906101000a900473ffffffffffffffffffffffffffffffffffffffff169050919050565b6000611992612789565b905090565b6119a483838360016127fe565b505050565b6000806119b58461274c565b9050600073ffffffffffffffffffffffffffffffffffffffff168373ffffffffffffffffffffffffffffffffffffffff16146119f7576119f68184866129c3565b5b600073ffffffffffffffffffffffffffffffffffffffff168173ffffffffffffffffffffffffffffffffffffffff1614611a8857611a396000856000806127fe565b6001600360008373ffffffffffffffffffffffffffffffffffffffff1673ffffffffffffffffffffffffffffffffffffffff168152602001908152602001600020600082825403925050819055505b600073ffffffffffffffffffffffffffffffffffffffff168573ffffffffffffffffffffffffffffffffffffffff1614611b0b576001600360008773ffffffffffffffffffffffffffffffffffffffff1673ffffffffffffffffffffffffffffffffffffffff168152602001908152602001600020600082825401925050819055505b846002600086815260200190815260200160002060006101000a81548173ffffffffffffffffffffffffffffffffffffffff021916908373ffffffffffffffffffffffffffffffffffffffff160217905550838573ffffffffffffffffffffffffffffffffffffffff168273ffffffffffffffffffffffffffffffffffffffff167fddf252ad1be2c89b69c2b068fc378daa952ba7f163c4a11628f55a4df523b3ef60405160405180910390a4809150509392505050565b600081600d54119050919050565b60008190506003815110158015611bea5750603f815111155b611c29576040517f08c379a0000000000000000000000000000000000000000000000000000000008152600401611c2090614059565b60405180910390fd5b7f2d0000000000000000000000000000000000000000000000000000000000000081600081518110611c5e57611c5d613dc7565b5b602001015160f81c60f81b7effffffffffffffffffffffffffffffffffffffffffffffffffffffffffffff191614158015611d0557507f2d000000000000000000000000000000000000000000000000000000000000008160018351611cc49190614079565b81518110611cd557611cd4613dc7565b5b602001015160f81c60f81b7effffffffffffffffffffffffffffffffffffffffffffffffffffffffffffff191614155b611d44576040517f08c379a0000000000000000000000000000000000000000000000000000000008152600401611d3b9061411f565b60405180910390fd5b60005b8151811015611eae576000828281518110611d6557611d64613dc7565b5b602001015160f81c60f81b9050606160f81b817effffffffffffffffffffffffffffffffffffffffffffffffffffffffffffff191610158015611dce5750607a60f81b817effffffffffffffffffffffffffffffffffffffffffffffffffffffffffffff191611155b80611e315750603060f81b817effffffffffffffffffffffffffffffffffffffffffffffffffffffffffffff191610158015611e305750603960f81b817effffffffffffffffffffffffffffffffffffffffffffffffffffffffffffff191611155b5b80611e615750602d60f81b817effffffffffffffffffffffffffffffffffffffffffffffffffffffffffffff1916145b611ea0576040517f08c379a0000000000000000000000000000000000000000000000000000000008152600401611e97906141b1565b60405180910390fd5b508080600101915050611d47565b505050565b600073ffffffffffffffffffffffffffffffffffffffff168273ffffffffffffffffffffffffffffffffffffffff1603611f255760006040517f64a0ae92000000000000000000000000000000000000000000000000000000008152600401611f1c919061304a565b60405180910390fd5b6000611f33838360006119a9565b9050600073ffffffffffffffffffffffffffffffffffffffff168173ffffffffffffffffffffffffffffffffffffffff1614611fa75760006040517f73c6ac6e000000000000000000000000000000000000000000000000000000008152600401611f9e919061304a565b60405180910390fd5b505050565b6000808383604051602001611fc191906141d1565b60405160208183030381529060405280519060200120604051602001611fe8929190613e83565b604051602081830303815290604052805190602001209050600073ffffffffffffffffffffffffffffffffffffffff168573ffffffffffffffffffffffffffffffffffffffff166302571be3836040518263ffffffff1660e01b8152600401612051919061313d565b602060405180830381865afa15801561206e573d6000803e3d6000fd5b505050506040513d601f19601f8201168201806040525081019061209291906141fd565b73ffffffffffffffffffffffffffffffffffffffff16149150509392505050565b60008251116120f7576040517f08c379a00000000000000000000000000000000000000000000000000000000081526004016120ee90614276565b60405180910390fd5b60008260405160200161210a91906141d1565b60405160208183030381529060405280519060200120905061212c8130612a87565b600060085482604051602001612143929190613e83565b604051602081830303815290604052805190602001209050600660009054906101000a900473ffffffffffffffffffffffffffffffffffffffff1673ffffffffffffffffffffffffffffffffffffffff16635ef2c7f06008548430600760009054906101000a900473ffffffffffffffffffffffffffffffffffffffff1660006040518663ffffffff1660e01b81526004016121e39594939291906142e5565b600060405180830381600087803b1580156121fd57600080fd5b505af1158015612211573d6000803e3d6000fd5b50505050600760009054906101000a900473ffffffffffffffffffffffffffffffffffffffff1673ffffffffffffffffffffffffffffffffffffffff1663d5fa2b0082306040518363ffffffff1660e01b8152600401612272929190614338565b600060405180830381600087803b15801561228c57600080fd5b505af11580156122a0573d6000803e3d6000fd5b50505050600760009054906101000a900473ffffffffffffffffffffffffffffffffffffffff1673ffffffffffffffffffffffffffffffffffffffff166310f13a8c826122ec8661267e565b6040518363ffffffff1660e01b81526004016123099291906143ad565b600060405180830381600087803b15801561232357600080fd5b505af1158015612337573d6000803e3d6000fd5b5050505050505050565b600073ffffffffffffffffffffffffffffffffffffffff168273ffffffffffffffffffffffffffffffffffffffff16036123b257816040517f5b08ba180000000000000000000000000000000000000000000000000000000081526004016123a9919061304a565b60405180910390fd5b80600560008573ffffffffffffffffffffffffffffffffffffffff1673ffffffffffffffffffffffffffffffffffffffff16815260200190815260200160002060008473ffffffffffffffffffffffffffffffffffffffff1673ffffffffffffffffffffffffffffffffffffffff16815260200190815260200160002060006101000a81548160ff0219169083151502179055508173ffffffffffffffffffffffffffffffffffffffff168373ffffffffffffffffffffffffffffffffffffffff167f17307eab39ab6107e8899845ad3d59bd9653f200f220920489ca2b5937696c31836040516124a39190612e5f565b60405180910390a3505050565b60008373ffffffffffffffffffffffffffffffffffffffff163b1115612661578273ffffffffffffffffffffffffffffffffffffffff1663150b7a026124f4611988565b8685856040518563ffffffff1660e01b81526004016125169493929190614445565b6020604051808303816000875af192505050801561255257506040513d601f19601f8201168201806040525081019061254f91906144a6565b60015b6125d6573d8060008114612582576040519150601f19603f3d011682016040523d82523d6000602084013e612587565b606091505b5060008151036125ce57836040517f64a0ae920000000000000000000000000000000000000000000000000000000081526004016125c5919061304a565b60405180910390fd5b805181602001fd5b63150b7a0260e01b7bffffffffffffffffffffffffffffffffffffffffffffffffffffffff1916817bffffffffffffffffffffffffffffffffffffffffffffffffffffffff19161461265f57836040517f64a0ae92000000000000000000000000000000000000000000000000000000008152600401612656919061304a565b60405180910390fd5b505b50505050565b606060405180602001604052806000815250905090565b60606000600161268d84612b77565b01905060008167ffffffffffffffff8111156126ac576126ab6131d9565b5b6040519080825280601f01601f1916602001820160405280156126de5781602001600182028036833780820191505090505b509050600082602001820190505b600115612741578080600190039150507f3031323334353637383961626364656600000000000000000000000000000000600a86061a8153600a8581612735576127346144d3565b5b049450600085036126ec575b819350505050919050565b60006002600083815260200190815260200160002060009054906101000a900473ffffffffffffffffffffffffffffffffffffffff169050919050565b60008060003690509050600061279d612cca565b90506127a833610ec1565b80156127b45750808210155b156127ee5760003682846127c89190614079565b9080926127d79392919061450c565b906127e2919061457e565b60601c925050506127fb565b6127f6612cd9565b925050505b90565b80806128375750600073ffffffffffffffffffffffffffffffffffffffff168273ffffffffffffffffffffffffffffffffffffffff1614155b1561296b576000612847846118c3565b9050600073ffffffffffffffffffffffffffffffffffffffff168373ffffffffffffffffffffffffffffffffffffffff16141580156128b257508273ffffffffffffffffffffffffffffffffffffffff168173ffffffffffffffffffffffffffffffffffffffff1614155b80156128c557506128c38184611347565b155b1561290757826040517fa9fbf51f0000000000000000000000000000000000000000000000000000000081526004016128fe919061304a565b60405180910390fd5b811561296957838573ffffffffffffffffffffffffffffffffffffffff168273ffffffffffffffffffffffffffffffffffffffff167f8c5be1e5ebec7d5bd14f71427d1e84f3dd0314c0f7b2291e5b200ac8c7c3b92560405160405180910390a45b505b836004600085815260200190815260200160002060006101000a81548173ffffffffffffffffffffffffffffffffffffffff021916908373ffffffffffffffffffffffffffffffffffffffff16021790555050505050565b6129ce838383612ce1565b612a8257600073ffffffffffffffffffffffffffffffffffffffff168373ffffffffffffffffffffffffffffffffffffffff1603612a4357806040517f7e273289000000000000000000000000000000000000000000000000000000008152600401612a3a91906134af565b60405180910390fd5b81816040517f177e802f000000000000000000000000000000000000000000000000000000008152600401612a799291906145dd565b60405180910390fd5b505050565b6000801b60085403612ace576040517f08c379a0000000000000000000000000000000000000000000000000000000008152600401612ac590614652565b60405180910390fd5b600660009054906101000a900473ffffffffffffffffffffffffffffffffffffffff1673ffffffffffffffffffffffffffffffffffffffff166306ab592360085484846040518463ffffffff1660e01b8152600401612b2f93929190614672565b6020604051808303816000875af1158015612b4e573d6000803e3d6000fd5b505050506040513d601f19601f82011682018060405250810190612b7291906146d5565b505050565b600080600090507a184f03e93ff9f4daa797ed6e38ed64bf6a1f0100000000000000008310612bd5577a184f03e93ff9f4daa797ed6e38ed64bf6a1f0100000000000000008381612bcb57612bca6144d3565b5b0492506040810190505b6d04ee2d6d415b85acef81000000008310612c12576d04ee2d6d415b85acef81000000008381612c0857612c076144d3565b5b0492506020810190505b662386f26fc100008310612c4157662386f26fc100008381612c3757612c366144d3565b5b0492506010810190505b6305f5e1008310612c6a576305f5e1008381612c6057612c5f6144d3565b5b0492506008810190505b6127108310612c8f576127108381612c8557612c846144d3565b5b0492506004810190505b60648310612cb25760648381612ca857612ca76144d3565b5b0492506002810190505b600a8310612cc1576001810190505b80915050919050565b6000612cd4612da2565b905090565b600033905090565b60008073ffffffffffffffffffffffffffffffffffffffff168373ffffffffffffffffffffffffffffffffffffffff1614158015612d9957508273ffffffffffffffffffffffffffffffffffffffff168473ffffffffffffffffffffffffffffffffffffffff161480612d5a5750612d598484611347565b5b80612d9857508273ffffffffffffffffffffffffffffffffffffffff16612d808361194b565b73ffffffffffffffffffffffffffffffffffffffff16145b5b90509392505050565b60006014905090565b6000604051905090565b600080fd5b600080fd5b60007fffffffff0000000000000000000000000000000000000000000000000000000082169050919050565b612df481612dbf565b8114612dff57600080fd5b50565b600081359050612e1181612deb565b92915050565b600060208284031215612e2d57612e2c612db5565b5b6000612e3b84828501612e02565b91505092915050565b60008115159050919050565b612e5981612e44565b82525050565b6000602082019050612e746000830184612e50565b92915050565b600073ffffffffffffffffffffffffffffffffffffffff82169050919050565b6000819050919050565b6000612ebf612eba612eb584612e7a565b612e9a565b612e7a565b9050919050565b6000612ed182612ea4565b9050919050565b6000612ee382612ec6565b9050919050565b612ef381612ed8565b82525050565b6000602082019050612f0e6000830184612eea565b92915050565b600081519050919050565b600082825260208201905092915050565b60005b83811015612f4e578082015181840152602081019050612f33565b60008484015250505050565b6000601f19601f8301169050919050565b6000612f7682612f14565b612f808185612f1f565b9350612f90818560208601612f30565b612f9981612f5a565b840191505092915050565b60006020820190508181036000830152612fbe8184612f6b565b905092915050565b6000819050919050565b612fd981612fc6565b8114612fe457600080fd5b50565b600081359050612ff681612fd0565b92915050565b60006020828403121561301257613011612db5565b5b600061302084828501612fe7565b91505092915050565b600061303482612e7a565b9050919050565b61304481613029565b82525050565b600060208201905061305f600083018461303b565b92915050565b61306e81613029565b811461307957600080fd5b50565b60008135905061308b81613065565b92915050565b600080604083850312156130a8576130a7612db5565b5b60006130b68582860161307c565b92505060206130c785828601612fe7565b9150509250929050565b6000806000606084860312156130ea576130e9612db5565b5b60006130f88682870161307c565b93505060206131098682870161307c565b925050604061311a86828701612fe7565b9150509250925092565b6000819050919050565b61313781613124565b82525050565b6000602082019050613152600083018461312e565b92915050565b600061316382612ec6565b9050919050565b61317381613158565b82525050565b600060208201905061318e600083018461316a565b92915050565b600080604083850312156131ab576131aa612db5565b5b60006131b985828601612fe7565b92505060206131ca8582860161307c565b9150509250929050565b600080fd5b7f4e487b7100000000000000000000000000000000000000000000000000000000600052604160045260246000fd5b61321182612f5a565b810181811067ffffffffffffffff821117156132305761322f6131d9565b5b80604052505050565b6000613243612dab565b905061324f8282613208565b919050565b600067ffffffffffffffff82111561326f5761326e6131d9565b5b602082029050602081019050919050565b600080fd5b600061329861329384613254565b613239565b905080838252602082019050602084028301858111156132bb576132ba613280565b5b835b818110156132e457806132d0888261307c565b8452602084019350506020810190506132bd565b5050509392505050565b600082601f830112613303576133026131d4565b5b8135613313848260208601613285565b91505092915050565b600080fd5b600067ffffffffffffffff82111561333c5761333b6131d9565b5b61334582612f5a565b9050602081019050919050565b82818337600083830152505050565b600061337461336f84613321565b613239565b9050828152602081018484840111156133905761338f61331c565b5b61339b848285613352565b509392505050565b600082601f8301126133b8576133b76131d4565b5b81356133c8848260208601613361565b91505092915050565b600080600080600060a086880312156133ed576133ec612db5565b5b60006133fb8882890161307c565b955050602086013567ffffffffffffffff81111561341c5761341b612dba565b5b613428888289016132ee565b945050604086013567ffffffffffffffff81111561344957613448612dba565b5b613455888289016133a3565b935050606061346688828901612fe7565b925050608086013567ffffffffffffffff81111561348757613486612dba565b5b613493888289016133a3565b9150509295509295909350565b6134a981612fc6565b82525050565b60006020820190506134c460008301846134a0565b92915050565b6000602082840312156134e0576134df612db5565b5b60006134ee8482850161307c565b91505092915050565b60006020828403121561350d5761350c612db5565b5b600082013567ffffffffffffffff81111561352b5761352a612dba565b5b613537848285016133a3565b91505092915050565b61354981612e44565b811461355457600080fd5b50565b60008135905061356681613540565b92915050565b6000806040838503121561358357613582612db5565b5b60006135918582860161307c565b92505060206135a285828601613557565b9150509250929050565b600067ffffffffffffffff8211156135c7576135c66131d9565b5b6135d082612f5a565b9050602081019050919050565b60006135f06135eb846135ac565b613239565b90508281526020810184848401111561360c5761360b61331c565b5b613617848285613352565b509392505050565b600082601f830112613634576136336131d4565b5b81356136448482602086016135dd565b91505092915050565b6000806000806080858703121561366757613666612db5565b5b60006136758782880161307c565b94505060206136868782880161307c565b935050604061369787828801612fe7565b925050606085013567ffffffffffffffff8111156136b8576136b7612dba565b5b6136c48782880161361f565b91505092959194509250565b600081519050919050565b600082825260208201905092915050565b6000819050602082019050919050565b61370581612fc6565b82525050565b600061371783836136fc565b60208301905092915050565b6000602082019050919050565b600061373b826136d0565b61374581856136db565b9350613750836136ec565b8060005b83811015613781578151613768888261370b565b975061377383613723565b925050600181019050613754565b5085935050505092915050565b600060208201905081810360008301526137a88184613730565b905092915050565b600080604083850312156137c7576137c6612db5565b5b60006137d58582860161307c565b92505060206137e68582860161307c565b9150509250929050565b600081519050919050565b600082825260208201905092915050565b6000819050602082019050919050565b61382581613029565b82525050565b6000613837838361381c565b60208301905092915050565b6000602082019050919050565b600061385b826137f0565b61386581856137fb565b93506138708361380c565b8060005b838110156138a1578151613888888261382b565b975061389383613843565b925050600181019050613874565b5085935050505092915050565b60006080820190506138c3600083018761303b565b81810360208301526138d58186612f6b565b90506138e460408301856134a0565b81810360608301526138f68184613850565b905095945050505050565b7f4e487b7100000000000000000000000000000000000000000000000000000000600052602260045260246000fd5b6000600282049050600182168061394857607f821691505b60208210810361395b5761395a613901565b5b50919050565b6000606082019050613976600083018661303b565b61398360208301856134a0565b613990604083018461303b565b949350505050565b7f546f6b656e20646f6573206e6f74206578697374000000000000000000000000600082015250565b60006139ce601483612f1f565b91506139d982613998565b602082019050919050565b600060208201905081810360008301526139fd816139c1565b9050919050565b7f4e6f7420617574686f72697a656420746f207369676e00000000000000000000600082015250565b6000613a3a601683612f1f565b9150613a4582613a04565b602082019050919050565b60006020820190508181036000830152613a6981613a2d565b9050919050565b7f416c7265616479207369676e6564000000000000000000000000000000000000600082015250565b6000613aa6600e83612f1f565b9150613ab182613a70565b602082019050919050565b60006020820190508181036000830152613ad581613a99565b9050919050565b7f4e487b7100000000000000000000000000000000000000000000000000000000600052601160045260246000fd5b6000613b1682612fc6565b91507fffffffffffffffffffffffffffffffffffffffffffffffffffffffffffffffff8203613b4857613b47613adc565b5b600182019050919050565b60008190508160005260206000209050919050565b60006020601f8301049050919050565b600082821b905092915050565b600060088302613bb57fffffffffffffffffffffffffffffffffffffffffffffffffffffffffffffffff82613b78565b613bbf8683613b78565b95508019841693508086168417925050509392505050565b6000613bf2613bed613be884612fc6565b612e9a565b612fc6565b9050919050565b6000819050919050565b613c0c83613bd7565b613c20613c1882613bf9565b848454613b85565b825550505050565b600090565b613c35613c28565b613c40818484613c03565b505050565b5b81811015613c6457613c59600082613c2d565b600181019050613c46565b5050565b601f821115613ca957613c7a81613b53565b613c8384613b68565b81016020851015613c92578190505b613ca6613c9e85613b68565b830182613c45565b50505b505050565b600082821c905092915050565b6000613ccc60001984600802613cae565b1980831691505092915050565b6000613ce58383613cbb565b9150826002028217905092915050565b613cfe82612f14565b67ffffffffffffffff811115613d1757613d166131d9565b5b613d218254613930565b613d2c828285613c68565b600060209050601f831160018114613d5f5760008415613d4d578287015190505b613d578582613cd9565b865550613dbf565b601f198416613d6d86613b53565b60005b82811015613d9557848901518255600182019150602085019450602081019050613d70565b86831015613db25784890151613dae601f891682613cbb565b8355505b6001600288020188555050505b505050505050565b7f4e487b7100000000000000000000000000000000000000000000000000000000600052603260045260246000fd5b7f537562646f6d61696e206973206e6f7420617661696c61626c65000000000000600082015250565b6000613e2c601a83612f1f565b9150613e3782613df6565b602082019050919050565b60006020820190508181036000830152613e5b81613e1f565b9050919050565b6000819050919050565b613e7d613e7882613124565b613e62565b82525050565b6000613e8f8285613e6c565b602082019150613e9f8284613e6c565b6020820191508190509392505050565b600081905092915050565b6000613ec582612f14565b613ecf8185613eaf565b9350613edf818560208601612f30565b80840191505092915050565b6000613ef78285613eba565b9150613f038284613eba565b91508190509392505050565b7f517565727920666f72206e6f6e6578697374656e7420746f6b656e0000000000600082015250565b6000613f45601b83612f1f565b9150613f5082613f0f565b602082019050919050565b60006020820190508181036000830152613f7481613f38565b9050919050565b7f4e6f7420617574686f72697a6564000000000000000000000000000000000000600082015250565b6000613fb1600e83612f1f565b9150613fbc82613f7b565b602082019050919050565b60006020820190508181036000830152613fe081613fa4565b9050919050565b7f537562646f6d61696e206d757374206265206265747765656e203320616e642060008201527f3633206368617261637465727300000000000000000000000000000000000000602082015250565b6000614043602d83612f1f565b915061404e82613fe7565b604082019050919050565b6000602082019050818103600083015261407281614036565b9050919050565b600061408482612fc6565b915061408f83612fc6565b92508282039050818111156140a7576140a6613adc565b5b92915050565b7f537562646f6d61696e2063616e6e6f74207374617274206f7220656e6420776960008201527f746820612068797068656e000000000000000000000000000000000000000000602082015250565b6000614109602b83612f1f565b9150614114826140ad565b604082019050919050565b60006020820190508181036000830152614138816140fc565b9050919050565b7f537562646f6d61696e20636f6e7461696e7320696e76616c696420636861726160008201527f6374657273000000000000000000000000000000000000000000000000000000602082015250565b600061419b602583612f1f565b91506141a68261413f565b604082019050919050565b600060208201905081810360008301526141ca8161418e565b9050919050565b60006141dd8284613eba565b915081905092915050565b6000815190506141f781613065565b92915050565b60006020828403121561421357614212612db5565b5b6000614221848285016141e8565b91505092915050565b7f537562646f6d61696e2069732072657175697265640000000000000000000000600082015250565b6000614260601583612f1f565b915061426b8261422a565b602082019050919050565b6000602082019050818103600083015261428f81614253565b9050919050565b6000819050919050565b600067ffffffffffffffff82169050919050565b60006142cf6142ca6142c584614296565b612e9a565b6142a0565b9050919050565b6142df816142b4565b82525050565b600060a0820190506142fa600083018861312e565b614307602083018761312e565b614314604083018661303b565b614321606083018561303b565b61432e60808301846142d6565b9695505050505050565b600060408201905061434d600083018561312e565b61435a602083018461303b565b9392505050565b7f746f6b656e496400000000000000000000000000000000000000000000000000600082015250565b6000614397600783612f1f565b91506143a282614361565b602082019050919050565b60006060820190506143c2600083018561312e565b81810360208301526143d38161438a565b905081810360408301526143e78184612f6b565b90509392505050565b600081519050919050565b600082825260208201905092915050565b6000614417826143f0565b61442181856143fb565b9350614431818560208601612f30565b61443a81612f5a565b840191505092915050565b600060808201905061445a600083018761303b565b614467602083018661303b565b61447460408301856134a0565b8181036060830152614486818461440c565b905095945050505050565b6000815190506144a081612deb565b92915050565b6000602082840312156144bc576144bb612db5565b5b60006144ca84828501614491565b91505092915050565b7f4e487b7100000000000000000000000000000000000000000000000000000000600052601260045260246000fd5b600080fd5b600080fd5b600080858511156145205761451f614502565b5b8386111561453157614530614507565b5b6001850283019150848603905094509492505050565b600082905092915050565b60007fffffffffffffffffffffffffffffffffffffffff00000000000000000000000082169050919050565b600061458a8383614547565b826145958135614552565b925060148210156145d5576145d07fffffffffffffffffffffffffffffffffffffffff00000000000000000000000083601403600802613b78565b831692505b505092915050565b60006040820190506145f2600083018561303b565b6145ff60208301846134a0565b9392505050565b7f526f6f74206e6f6465206e6f7420736574000000000000000000000000000000600082015250565b600061463c601183612f1f565b915061464782614606565b602082019050919050565b6000602082019050818103600083015261466b8161462f565b9050919050565b6000606082019050614687600083018661312e565b614694602083018561312e565b6146a1604083018461303b565b949350505050565b6146b281613124565b81146146bd57600080fd5b50565b6000815190506146cf816146a9565b92915050565b6000602082840312156146eb576146ea612db5565b5b60006146f9848285016146c0565b9150509291505056fea2646970667358221220d9868abfae18823c50bcbc512ca4d4a640cb14b3723bfef2f35f3fb846d40e3f64736f6c63430008180033",
  "linkReferences": {},
  "deployedLinkReferences": {}
}